:100000000C942A000C94E1040C940E050C943B050E
:100010000C9447000C9447000C9447000C94B00DCE
:100020000C9447000C9447000C9447000C94470034
:100030000C9447000C9447000C9447000C94470024
:100040000C9447000C9447000C9447000C94470014
:100050000C94470011241FBECFE5D8E0DEBFCDBF12
:1000600010E0A0E6B0E0E0E8F2E302C005900D92F7
:10007000A836B107D9F713E0A8E6B0E001C01D9299
:10008000A836B107E1F70E94630A0C943E190C945C
:100090000000DF93CF9300D000D00F92CDB7DEB732
:1000A00089836A834B838981282F30E03D832C83A9
:1000B0008C819D818130910509F447C02C813D815F
:1000C000223031052CF48C819D81009771F0CBC0DA
:1000D0002C813D812230310509F467C08C819D81DE
:1000E0008330910509F491C0BEC08B818823A9F4A7
:1000F000AAE3B0E0EAE3F0E08081482F8A81282F6C
:1001000030E081E090E0022E02C0880F991F0A942F
:10011000E2F7809584238C93A6C08B81813009F00F
:10012000A2C0AAE3B0E0EAE3F0E08081482F8A8130
:10013000282F30E081E090E0022E02C0880F991F46
:100140000A94E2F7842B8C938EC08B818823A9F4C8
:10015000A7E3B0E0E7E3F0E08081482F8A81282F11
:1001600030E081E090E0022E02C0880F991F0A94CF
:10017000E2F7809584238C9376C08B81813009F0DF
:1001800072C0A7E3B0E0E7E3F0E08081482F8A8106
:10019000282F30E081E090E0022E02C0880F991FE6
:1001A0000A94E2F7842B8C935EC08B818823A9F498
:1001B000A4E3B0E0E4E3F0E08081482F8A81282FB7
:1001C00030E081E090E0022E02C0880F991F0A946F
:1001D000E2F7809584238C9346C08B81813009F0AF
:1001E00042C0A4E3B0E0E4E3F0E08081482F8A81DC
:1001F000282F30E081E090E0022E02C0880F991F86
:100200000A94E2F7842B8C932EC08B818823A9F467
:10021000A1E3B0E0E1E3F0E08081482F8A81282F5C
:1002200030E081E090E0022E02C0880F991F0A940E
:10023000E2F7809584238C9316C08B81813099F4EA
:10024000A1E3B0E0E1E3F0E08081482F8A81282F2C
:1002500030E081E090E0022E02C0880F991F0A94DE
:10026000E2F7842B8C930F900F900F900F900F90CC
:10027000CF91DF910895DF93CF9300D000D00F92FC
:10028000CDB7DEB789836A834B838981282F30E01D
:100290003D832C838C819D818130910509F447C079
:1002A0002C813D81223031052CF48C819D81009779
:1002B00071F0CBC02C813D812230310509F467C03B
:1002C0008C819D818330910509F491C0BEC08B81E2
:1002D0008823A9F4ABE3B0E0EBE3F0E08081482FA2
:1002E0008A81282F30E081E090E0022E02C0880F42
:1002F000991F0A94E2F7809584238C93A6C08B8182
:10030000813009F0A2C0ABE3B0E0EBE3F0E0808124
:10031000482F8A81282F30E081E090E0022E02C031
:10032000880F991F0A94E2F7842B8C938EC08B81DF
:100330008823A9F4A8E3B0E0E8E3F0E08081482F47
:100340008A81282F30E081E090E0022E02C0880FE1
:10035000991F0A94E2F7809584238C9376C08B8151
:10036000813009F072C0A8E3B0E0E8E3F0E08081FA
:10037000482F8A81282F30E081E090E0022E02C0D1
:10038000880F991F0A94E2F7842B8C935EC08B81AF
:100390008823A9F4A5E3B0E0E5E3F0E08081482FED
:1003A0008A81282F30E081E090E0022E02C0880F81
:1003B000991F0A94E2F7809584238C9346C08B8121
:1003C000813009F042C0A5E3B0E0E5E3F0E08081D0
:1003D000482F8A81282F30E081E090E0022E02C071
:1003E000880F991F0A94E2F7842B8C932EC08B817F
:1003F0008823A9F4A2E3B0E0E2E3F0E08081482F93
:100400008A81282F30E081E090E0022E02C0880F20
:10041000991F0A94E2F7809584238C9316C08B81F0
:10042000813099F4A2E3B0E0E2E3F0E08081482F6C
:100430008A81282F30E081E090E0022E02C0880FF0
:10044000991F0A94E2F7842B8C930F900F900F90D2
:100450000F900F90CF91DF910895DF93CF9300D04D
:1004600000D00F92CDB7DEB78A836B838A81282FA5
:1004700030E03D832C834C815D814130510541F159
:100480008C819D818230910534F42C813D81211530
:10049000310561F052C04C815D814230510551F10E
:1004A0008C819D8183309105B9F147C0E9E3F0E08B
:1004B0008081282F30E08B81882F90E0A90102C035
:1004C000559547958A95E2F7CA018170898335C0B1
:1004D000E6E3F0E08081282F30E08B81882F90E0E8
:1004E000A90102C0559547958A95E2F7CA01817026
:1004F000898323C0E3E3F0E08081282F30E08B8103
:10050000882F90E0A90102C0559547958A95E2F79A
:10051000CA018170898311C0E0E3F0E08081282F57
:1005200030E08B81882F90E0A90102C05595479556
:100530008A95E2F7CA018170898389810F900F90B3
:100540000F900F900F90CF91DF910895DF93CF938D
:1005500000D000D000D0CDB7DEB789836A835C833A
:100560004B838981282F30E03E832D834D815E812E
:100570004130510559F18D819E818230910534F4CD
:100580002D813E812115310569F05BC04D815E8171
:100590004230510579F18D819E818330910509F4B6
:1005A0003DC04FC0E9E3F0E08081282F30E08A8130
:1005B000882F90E0A90102C0559547958A95E2F7EA
:1005C000CA018170EB81FC8180833BC0E6E3F0E0EF
:1005D0008081282F30E08A81882F90E0A90102C015
:1005E000559547958A95E2F7CA018170EB81FC81A8
:1005F000808327C0E3E3F0E08081282F30E08A8108
:10060000882F90E0A90102C0559547958A95E2F799
:10061000CA018170EB81FC81808313C0E0E3F0E0CC
:100620008081282F30E08A81882F90E0A90102C0C4
:10063000559547958A95E2F7CA018170EB81FC8157
:10064000808326960FB6F894DEBF0FBECDBFCF9144
:10065000DF910895DF93CF9300D000D0CDB7DEB700
:1006600089836A838981282F30E03C832B838B81A7
:100670009C8181309105D1F02B813C812230310564
:100680002CF48B819C81009761F01EC02B813C81F2
:100690002230310581F08B819C818330910581F07E
:1006A00013C0EAE3F0E08A8180830EC0E7E3F0E064
:1006B0008A81808309C0E4E3F0E08A81808304C0FA
:1006C000E1E3F0E08A8180830F900F900F900F900C
:1006D000CF91DF910895DF93CF9300D000D0CDB7B5
:1006E000DEB789836A838981282F30E03C832B839E
:1006F0008B819C8181309105D1F02B813C8122300E
:1007000031052CF48B819C81009761F01EC02B81F8
:100710003C812230310581F08B819C8183309105B1
:1007200081F013C0EBE3F0E08A8180830EC0E8E340
:10073000F0E08A81808309C0E5E3F0E08A8180836C
:1007400004C0E2E3F0E08A8180830F900F900F9065
:100750000F90CF91DF910895DF93CF93CDB7DEB7A0
:10076000A5E5B0E0E5E5F0E0808182608C93A5E549
:10077000B0E0E5E5F0E0808181608C93A5E5B0E034
:10078000E5E5F0E0808188608C93A5E5B0E0E5E5E3
:10079000F0E0808184608C93A4E5B0E0E4E5F0E0D3
:1007A000808180648C93CF91DF910895DF93CF9304
:1007B00000D00F92CDB7DEB789838981282F30E032
:1007C0003B832A838A819B818130910521F12A8193
:1007D0003B81223031052CF48A819B81009761F0A6
:1007E00046C02A813B812230310521F18A819B81DB
:1007F0008330910571F13BC0A5E5B0E0E5E5F0E09F
:10080000808182608C93A5E5B0E0E5E5F0E0808131
:100810008E7F8C932CC0A5E5B0E0E5E5F0E080810B
:1008200082608C93A5E5B0E0E5E5F0E08081816031
:100830008C931DC0A5E5B0E0E5E5F0E08081816026
:100840008C93A5E5B0E0E5E5F0E080818D7F8C93A9
:100850000EC0A5E5B0E0E5E5F0E080818E7F8C93E9
:10086000A5E5B0E0E5E5F0E080818D7F8C930F9009
:100870000F900F90CF91DF910895DF93CF9300D029
:100880000F92CDB7DEB789838981282F30E03B8373
:100890002A838A819B818130910589F02A813B815D
:1008A00022303105A1F08A819B810097B9F4ABE534
:1008B000B0E0EBE5F0E0808180648C930FC0ABE5A5
:1008C000B0E0EBE5F0E0808180688C9307C0ABE599
:1008D000B0E0EBE5F0E0808180628C930F900F90A8
:1008E0000F90CF91DF910895DF93CF9300D00F92B7
:1008F000CDB7DEB789838981282F30E03B832A83F7
:100900008A819B818130910589F02A813B81223047
:100910003105A1F08A819B810097B9F4ABE5B0E085
:10092000EBE5F0E080818F7B8C930FC0ABE5B0E00E
:10093000EBE5F0E080818F778C9307C0ABE5B0E00A
:10094000EBE5F0E080818F7D8C930F900F900F90FE
:10095000CF91DF910895DF93CF9300D0CDB7DEB76D
:100960009A83898389819A81909369008093680032
:100970000F900F90CF91DF910895DF93CF9300D028
:10098000CDB7DEB79A83898389819A8190936B0072
:1009900080936A000F900F90CF91DF910895DF93BD
:1009A000CF9300D0CDB7DEB79A83898389819A81AE
:1009B00090936D0080936C000F900F90CF91DF911A
:1009C00008951F920F920FB60F9211242F933F9309
:1009D0004F935F936F937F938F939F93AF93BF9347
:1009E000EF93FF93DF93CF93CDB7DEB7E09168002D
:1009F000F09169000995CF91DF91FF91EF91BF913F
:100A0000AF919F918F917F916F915F914F913F91A6
:100A10002F910F900FBE0F901F9018951F920F925D
:100A20000FB60F9211242F933F934F935F936F93C1
:100A30007F938F939F93AF93BF93EF93FF93DF9336
:100A4000CF93CDB7DEB7E0916A00F0916B000995C6
:100A5000CF91DF91FF91EF91BF91AF919F918F91D6
:100A60007F916F915F914F913F912F910F900FBEAA
:100A70000F901F9018951F920F920FB60F9211248E
:100A80002F933F934F935F936F937F938F939F9396
:100A9000AF93BF93EF93FF93DF93CF93CDB7DEB7C1
:100AA000E0916C00F0916D000995CF91DF91FF917D
:100AB000EF91BF91AF919F918F917F916F915F91D6
:100AC0004F913F912F910F900FBE0F901F9018954F
:100AD000DF93CF93CDB7DEB7AFE5B0E0EFE5F0E061
:100AE000808180688C93CF91DF910895DF93CF93BD
:100AF000CDB7DEB7AFE5B0E0EFE5F0E080818F770E
:100B00008C93CF91DF910895DF93CF93CDB7DEB76C
:100B100027970FB6F894DEBF0FBECDBF9D838C83A1
:100B20006E834F838AE190E00E945C089A838983F8
:100B300089819A81009709F46FC080916E0090912D
:100B40006F00009741F489819A8190936F008093A0
:100B50006E000E94EB078E81823010F081E08E8360
:100B6000E981FA81118E108EE981FA818E81868B5E
:100B7000E981FA818F81878BE981FA818C819D815E
:100B80009183808389819A8102960E94F2088981EB
:100B90009A810C960E94F208E981FA8189819A81F2
:100BA00091878087E981FA8189819A81938B828BF1
:100BB0008E81282F30E085E090E0821B930BE98145
:100BC000FA8195878487E981FA81968980917000FE
:100BD000891728F4E981FA81868980937000E98178
:100BE000FA818689282F30E0C901880F991F880F64
:100BF000991F880F991F820F931FAC0149585F4FAF
:100C000089819A819C012E5F3F4FCA01B9010E94E0
:100C1000020981E08B8302C08FEF8B838B81279643
:100C20000FB6F894DEBF0FBECDBFCF91DF91089510
:100C3000DF93CF9300D000D000D0CDB7DEB79C8338
:100C40008B837E836D8320917100309172008B8144
:100C50009C81820F931F9A83898380916E0090916B
:100C60006F0002960E94BA09E0916E00F0916F0049
:100C700089819A81938382832091710030917200DF
:100C800089819A818217930770F480919D009091D9
:100C90009E0020916E0030916F002E5F3F4FB90192
:100CA0000E944E090DC080919B0090919C00209164
:100CB0006E0030916F002E5F3F4FB9010E944E09C8
:100CC0008D819E81009761F080916E0090916F0000
:100CD0009C01245F3F4F8D819E81B9010E944E0986
:100CE00026960FB6F894DEBF0FBECDBFCF91DF9131
:100CF0000895DF93CF9300D0CDB7DEB73AC0F89414
:100D0000E091A400F091A500868197819A83898360
:100D100089819A810C960E94BA09789489819A8176
:100D200002960E94BA09E981FA8196898091700041
:100D3000891728F4E981FA81868980937000E98116
:100D4000FA818689282F30E0C901880F991F880F02
:100D5000991F880F991F820F931FAC0149585F4F4D
:100D600089819A819C012E5F3F4FCA01B9010E947F
:100D7000020980919F00882309F0C1CF0F900F9046
:100D8000CF91DF910895DF93CF9300D000D0CDB7FE
:100D9000DEB70E9406152091730030917400821B0B
:100DA000930B909376008093750085C080917100BD
:100DB00090917200019690937200809371008091DF
:100DC000750090917600019790937600809375005E
:100DD0008091710090917200009709F064C0809139
:100DE0009B0090919C009A83898380919D009091B3
:100DF0009E0090939C0080939B0089819A819093A0
:100E00009E0080939D004FC0E0919B00F0919C005C
:100E10000580F681E02D868197819C838B83EB8111
:100E2000FC81228133818091710090917200821740
:100E3000930708F440C0F8948B819C8102960E942D
:100E4000BA09EB81FC8184899589009729F08B810F
:100E50009C810C960E94BA097894EB81FC8196895A
:100E600080917000891728F4EB81FC81868980933A
:100E70007000EB81FC818689282F30E0C901880F42
:100E8000991F880F991F880F991F820F931FAC011C
:100E900049585F4F8B819C819C012E5F3F4FCA0157
:100EA000B9010E940209E0919B00F0919C008081B1
:100EB000882309F0A9CF8091750090917600009762
:100EC00009F074CF8091710090917200909374003A
:100ED000809373000F900F900F900F90CF91DF9140
:100EE0000895DF93CF9300D0CDB7DEB70E94790687
:100EF0000E94C3060AC080917000882309F466C06E
:100F00008091700081508093700080917000282F34
:100F100030E0C901880F991F880F991F880F991F0A
:100F2000820F931FFC01E958FF4F8081882319F33A
:100F300080917000282F30E0C901880F991F880F19
:100F4000991F880F991F820F931F89589F4F9A836B
:100F50008983E981FA810180F281E02D8281938188
:100F6000E981FA8192838183E981FA812181328149
:100F700089819A8103962817390759F4E981FA8102
:100F80000180F281E02D82819381E981FA8192834F
:100F90008183E981FA810180F281E02D8681978148
:100FA00090936F0080936E00E0916E00F0916F005F
:100FB0004081518180916E0090916F00E0916E00B0
:100FC000F0916F002789622FFA0109950F900F9019
:100FD000CF91DF910895DF93CF930F92CDB7DEB716
:100FE000198213C08981282F30E0C901880F991F09
:100FF000880F991F880F991F820F931F89589F4F41
:101000000E94C80889818F5F89838981823050F36B
:1010100089E890E00E94C80882E990E00E94C80830
:101020008FE990E00E94C80889E890E090939C00C6
:1010300080939B0082E990E090939E0080939D00B6
:101040000F90CF91DF910895DF93CF9300D000D020
:101050000F92CDB7DEB79D838C83EC81FD81058037
:10106000F681E02D868197819B838A838A819B818B
:101070000C960E94BA098A819B819C01245F3F4F94
:101080008FE990E0B9010E940209EA81FB8196890B
:10109000E0916E00F0916F008689981718F081E05A
:1010A000898301C0198289810F900F900F900F9052
:1010B0000F90CF91DF910895DF93CF9300D000D0B0
:1010C000CDB7DEB79C838B831A8219820E9470147D
:1010D0008091A8009091A9002B813C81820F931FE1
:1010E00022E08835920718F52091A8003091A900D8
:1010F0008B819C81280F391F8091A8009091A900B5
:1011000082179307A0F48091A8009091A9008655BA
:101110009F4F9A8389832091A8003091A9008B81E9
:101120009C81820F931F9093A9008093A8000E9436
:101130007C1489819A810F900F900F900F90CF911E
:10114000DF910895DF93CF9300D0CDB7DEB79A83B8
:1011500089830F900F90CF91DF910895DF93CF9304
:10116000CDB7DEB71092A9001092A800CF91DF9101
:101170000895DF93CF93CDB7DEB72091A8003091CB
:10118000A90088E592E0821B930BCF91DF9108952F
:10119000DF93CF9300D0CDB7DEB79A83898389815F
:1011A0009A810396E981FA8192838183E981FA81A8
:1011B0008FEF9FEF9483838389819A810396E981DE
:1011C000FA819683858389819A810396E981FA81E0
:1011D00090878783E981FA8110820F900F90CF91D9
:1011E000DF910895DF93CF9300D0CDB7DEB79A8318
:1011F0008983E981FA81118610860F900F90CF9133
:10120000DF910895DF93CF9300D000D000D0CDB709
:10121000DEB79C838B837E836D83EB81FC81818130
:1012200092819A838983E981FA8182819381ED8118
:10123000FE8193838283EB81FC8181819281ED81A8
:10124000FE8195838483E981FA810280F381E02D18
:101250008D819E81958384838D819E81E981FA8130
:10126000938382838D819E81EB81FC819283818334
:10127000ED81FE818B819C8191878087EB81FC8150
:1012800080818F5FEB81FC81808326960FB6F89476
:10129000DEBF0FBECDBFCF91DF910895DF93CF9317
:1012A000CDB7DEB728970FB6F894DEBF0FBECDBF1F
:1012B0009E838D8378876F83EF81F885808191810C
:1012C0009A83898389819A812FEF8F3F920739F41E
:1012D000ED81FE81878190859C838B8318C08D81F1
:1012E0009E8103969C838B8306C0EB81FC81828167
:1012F00093819C838B83EB81FC810280F381E02DC1
:101300002081318189819A818217930770F7EB815F
:10131000FC8182819381EF81F88593838283EF81C1
:10132000F8850280F381E02D8F81988595838483F1
:10133000EF81F8858B819C81958384838F8198854B
:10134000EB81FC8193838283EF81F8858D819E817F
:1013500091878087ED81FE8180818F5FED81FE81A5
:10136000808328960FB6F894DEBF0FBECDBFCF9115
:10137000DF910895DF93CF9300D000D0CDB7DEB7D3
:101380009C838B83EB81FC81A281B381EB81FC8107
:101390008481958115969C938E931497EB81FC81A3
:1013A000A481B581EB81FC818281938113969C930A
:1013B0008E931297EB81FC81808591859A83898336
:1013C000E981FA81218132818B819C81281739073B
:1013D00041F4EB81FC8184819581E981FA819283DA
:1013E0008183EB81FC8111861086E981FA818081FD
:1013F0008150E981FA8180830F900F900F900F90B8
:10140000CF91DF910895DF93CF9300D0CDB7DEB7B2
:101410009A83898380910203882349F480E060E005
:1014200041E00E943B0181E08093020307C080E01D
:1014300060E040E00E943B011092020388EE93E0DE
:101440000E94F813E7CFDF93CF9300D0CDB7DEB77C
:101450009A83898380910303882349F480E061E0C3
:1014600041E00E943B0181E08093030307C080E0DC
:1014700061E040E00E943B011092030388EB9BE097
:101480000E94F813E7CFDF93CF9300D0CDB7DEB73C
:101490009A83898380910403882349F480E062E081
:1014A00041E00E943B0181E08093040307C080E09B
:1014B00062E040E00E943B011092040388E893E15F
:1014C0000E94F813E7CFAF92BF92CF92DF92EF92D4
:1014D000FF920F93DF93CF930F92CDB7DEB780E0EB
:1014E0006FEF0E942A0383E09AE060E070E044E638
:1014F00050E020E030E000E0EE24FF24CC24DD24A6
:10150000AA24BB240E94341283E29AE060E070E0D7
:1015100044E650E020E030E001E0EE24FF24CC245B
:10152000DD24AA24BB240E94341283E49AE060E004
:1015300070E044E650E020E030E002E0EE24FF24DA
:10154000CC24DD24AA24BB240E9434120E942D1432
:101550000E94680580E00E943D040E94AC03E2E323
:10156000F0E0808162E040E00E944900E2E3F0E0C8
:10157000808162E041E00E943B011982E2E3F0E0F9
:10158000808162E00E942D02898389818823B1F7DE
:101590008DEC9AE00E94AB04F1CFDF93CF930F92D2
:1015A000CDB7DEB71982E2E3F0E0808162E00E940D
:1015B0002D02898389818130B1F70F90CF91DF911E
:1015C0000895DF93CF93CDB7DEB728970FB6F89481
:1015D000DEBF0FBECDBF9C838B837E836D83588718
:1015E0004F83EB81FC8181E180838B819C8101971A
:1015F0009C838B83EB81FC8182E280838B819C8145
:1016000001979C838B83EB81FC8183E380838B81B7
:101610009C8101979C838B838D819E819A83898392
:101620008981EB81FC8180838B819C8101979C83E4
:101630008B8389819A81892F99279A8389838981CC
:10164000EB81FC8180838B819C8101979C838B83C0
:10165000EB81FC8110828B819C8101979C838B8321
:10166000EB81FC8180E880838B819C8101979C8346
:101670008B83EB81FC8110828B819C8101979C8301
:101680008B83EB81FC8182E080838B819C8101973D
:101690009C838B83EB81FC8183E080838B819C81A5
:1016A00001979C838B83EB81FC8184E080838B8119
:1016B0009C8101979C838B83EB81FC8185E08083F7
:1016C0008B819C8101979C838B83EB81FC8186E0DD
:1016D00080838B819C8101979C838B83EB81FC8130
:1016E00087E080838B819C8101979C838B83EB8136
:1016F000FC8188E080838B819C8101979C838B8314
:10170000EB81FC8189E080838B819C8101979C83A4
:101710008B83EB81FC8180E180838B819C810197AD
:101720009C838B83EB81FC8181E180838B819C8115
:1017300001979C838B83EB81FC8182E180838B8189
:101740009C8101979C838B83EB81FC8183E1808367
:101750008B819C8101979C838B83EB81FC8184E14D
:1017600080838B819C8101979C838B83EB81FC819F
:1017700085E180838B819C8101979C838B83EB81A6
:10178000FC8186E180838B819C8101979C838B8384
:10179000EB81FC8187E180838B819C8101979C8315
:1017A0008B83EB81FC8188E180838B819C81019715
:1017B0009C838B83EB81FC8189E180838B819C817D
:1017C00001979C838B83EB81FC8180E280838B81FA
:1017D0009C8101979C838B83EB81FC8181E28083D8
:1017E0008B819C8101979C838B83EB81FC8182E2BE
:1017F00080838B819C8101979C838B83EB81FC810F
:1018000083E280838B819C8101979C838B838F8172
:1018100098859A8389838981EB81FC8180838B8180
:101820009C8101979C838B8389819A81892F992739
:101830009A8389838981EB81FC8180838B819C8160
:1018400001979C838B83EB81FC8186E280838B8173
:101850009C8101979C838B83EB81FC8187E2808351
:101860008B819C8101979C838B83EB81FC8188E237
:1018700080838B819C8101979C838B83EB81FC818E
:1018800089E280838B819C8101979C838B83EB8190
:10189000FC8180E380838B819C8101979C838B8377
:1018A000EB81FC8181E380838B819C8101979C8308
:1018B0008B838B819C8128960FB6F894DEBF0FBE78
:1018C000CDBFCF91DF910895DF93CF93CDB7DEB732
:1018D0000E94540DA0910503B0910603CD91CDBF98
:1018E000DD91DEBFFF91EF91DF91CF91BF91AF917D
:1018F0009F918F917F916F915F914F913F912F9128
:101900001F910F91FF90EF90DF90CF90BF90AF901D
:101910009F908F907F906F905F904F903F902F900F
:101920001F900F900FBE0F90089581E0CF91DF912F
:101930000895DF93CF93CDB7DEB7CF91DF910895B0
:101940000F920FB6F8940F921F9211242F923F928C
:101950004F925F926F927F928F929F92AF92BF92BF
:10196000CF92DF92EF92FF920F931F932F933F93AB
:101970004F935F936F937F938F939F93AF93BF9397
:10198000CF93DF93EF93FF93A0910503B0910603EC
:101990000DB60D920EB60D920E941016A091050381
:1019A000B0910603CD91CDBFDD91DEBFFF91EF91E8
:1019B000DF91CF91BF91AF919F918F917F916F9167
:1019C0005F914F913F912F911F910F91FF90EF9059
:1019D000DF90CF90BF90AF909F908F907F906F904F
:1019E0005F904F903F902F901F900F900FBE0F90E1
:1019F00008950F920FB6F8940F921F9211242F9210
:101A00003F924F925F926F927F928F929F92AF928E
:101A1000BF92CF92DF92EF92FF920F931F932F937B
:101A20003F934F935F936F937F938F939F93AF9366
:101A3000BF93CF93DF93EF93FF93A0910503B091F2
:101A400006030DB60D920EB60D920E943B150E9434
:101A50001016A0910503B0910603CD91CDBFDD9185
:101A6000DEBFFF91EF91DF91CF91BF91AF919F9139
:101A70008F917F916F915F914F913F912F911F9126
:101A80000F91FF90EF90DF90CF90BF90AF909F901D
:101A90008F907F906F905F904F903F902F901F900E
:101AA0000F900FBE0F900895DF93CF9300D000D01A
:101AB00000D0CDB7DEB780E49FE1A0E0B0E08B833B
:101AC0009C83AD83BE838B819C81AD81BE816894F4
:101AD00015F8B695A795979587951694D1F78B83AA
:101AE0009C83AD83BE838B819C81AD81BE81019738
:101AF000A109B1098B839C83AD83BE838B818983CC
:101B00008B819C81AD81BE81892F9A2FAB2FBB2702
:101B10008B839C83AD83BE838B818A83EBE4F0E06F
:101B20008A818083EAE4F0E0898180838BE0898385
:101B3000EEE4F0E089818083E9E5F0E0808189834B
:101B4000898180618983E9E5F0E089818083269637
:101B50000FB6F894DEBF0FBECDBFCF91DF910895D1
:101B60000E94F90C1895DF93CF93CDB7DEB7289775
:101B70000FB6F894DEBF0FBECDBF8F8368871A8281
:101B800019828F81882309F48CC08FE190E00E9434
:101B90005C089E838D838D819E81009709F481C0AE
:101BA0008F81282F30E08885882F90E0AC01249F1A
:101BB000C001259F900D349F900D112401969C83A8
:101BC0008B838B819C810E945C08ED81FE819183D7
:101BD0008083ED81FE8180819181009709F45DC051
:101BE000ED81FE81408151818F81282F30E08885F1
:101BF000882F90E0BC01269FC001279F900D369F43
:101C0000900D1124840F951FED81FE8193838283B3
:101C1000ED81FE81128EED81FE8180819181ED81C9
:101C2000FE8195838483ED81FE81408151818F8186
:101C3000882F90E09C01215030408885882F90E0CB
:101C4000BC01269FC001279F900D369F900D112447
:101C5000840F951FED81FE8197838683ED81FE8140
:101C60008F81838FED81FE818885848FED81FE8158
:101C70008FEF858FED81FE818FEF868F8D819E8125
:101C800008960E94C8088D819E8141960E94C808CE
:101C90008D819E819A83898304C08D819E810E945B
:101CA000A20889819A8128960FB6F894DEBF0FBEEC
:101CB000CDBFCF91DF910895DF93CF93CDB7DEB73E
:101CC0002C970FB6F894DEBF0FBECDBF9E838D83D9
:101CD00078876F835A8749872B8719820FB6F894C4
:101CE0000F92ED81FE81928DED81FE81838D98179B
:101CF000D8F48D819E812F813885B9014B850E9452
:101D00009710ED81FE818189882349F08D819E8124
:101D100041960E94AC16813011F40E94A00C0F90E5
:101D20000FBE81E08C875CC089859A85009721F47D
:101D30000F900FBE1C8654C08981882331F4CE01D8
:101D400002960E94141781E089830F900FBE0E94B3
:101D500070140FB6F8940F92ED81FE81858D8F3F40
:101D600019F4ED81FE81158EED81FE81868D8F3F08
:101D700019F4ED81FE81168E0F900FBECE010296F2
:101D80009E01275F3F4FB9010E942D17882309F557
:101D90008D819E810E94FB118823A1F08D819E81FF
:101DA000089629853A85B9010E9476168D819E8113
:101DB0000E9474110E947C14882309F08FCF0E9426
:101DC000A00C8CCF8D819E810E9474110E947C1486
:101DD00085CF8D819E810E9474110E947C141C8687
:101DE0008C852C960FB6F894DEBF0FBECDBFCF9179
:101DF000DF910895DF93CF93CDB7DEB729970FB664
:101E0000F894DEBF0FBECDBF9C838B837E836D8332
:101E100058874F8329871982EB81FC81928DEB8152
:101E2000FC81838D981740F58B819C812D813E81AB
:101E3000B90149850E949710EB81FC81868D8F3F07
:101E400089F4EB81FC818189882399F08B819C81C5
:101E500041960E94AC16882361F0EF81F88581E0FD
:101E6000808307C0EB81FC81868D8F5FEB81FC81D5
:101E7000868F81E08A8301C01A828A8129960FB6F3
:101E8000F894DEBF0FBECDBFCF91DF910895DF93F1
:101E9000CF93CDB7DEB72E970FB6F894DEBF0FBE47
:101EA000CDBF98878F837A8769875C874B872D871B
:101EB0001B820FB6F8940F92EF81F885828D8823EC
:101EC00009F43FC0EF81F885868197819A838983E1
:101ED0008F81988529853A85B9010E942C118D85BD
:101EE0008823B1F4EF81F885828D8150EF81F885E8
:101EF000828FEF81F88580858823F1F08F81988526
:101F000008960E94AC168130B9F40E94A00C14C04F
:101F1000EF81F88589819A8197838683EF81F8859F
:101F20008189882349F08F81988541960E94AC165B
:101F3000882311F00E94A00C0F900FBE81E08E87C5
:101F40005CC08B859C85009721F40F900FBE1E8688
:101F500054C08B81882331F4CE0104960E9414175B
:101F600081E08B830F900FBE0E9470140FB6F8941F
:101F70000F92EF81F885858D8F3F19F4EF81F885F9
:101F8000158EEF81F885868D8F3F19F4EF81F885E6
:101F9000168E0F900FBECE0104969E01255F3F4F17
:101FA000B9010E942D17882309F58F8198850E9419
:101FB000C8118823A1F08F81988541962B853C8597
:101FC000B9010E9476168F8198850E9474110E9433
:101FD0007C14882309F06DCF0E94A00C6ACF8F81FA
:101FE00098850E9474110E947C1463CF8F8198851C
:101FF0000E9474110E947C141E868E852E960FB648
:10200000F894DEBF0FBECDBFCF91DF910895DF936F
:10201000CF93CDB7DEB728970FB6F894DEBF0FBECB
:10202000CDBF9C838B837E836D8358874F831982BA
:10203000EB81FC81828D882371F18B819C812D81C4
:102040003E81B9010E942C11EB81FC81828D81506F
:10205000EB81FC81828FEB81FC81858D8F3F89F440
:10206000EB81FC818085882399F08B819C81089687
:102070000E94AC16882361F0EF81F88581E08083AF
:1020800007C0EB81FC81858D8F5FEB81FC81858FA3
:1020900081E08A8301C01A828A8128960FB6F8945B
:1020A000DEBF0FBECDBFCF91DF910895DF93CF93F9
:1020B00000D00F92CDB7DEB79B838A830FB6F8941A
:1020C0000F92EA81FB81828D89830F900FBE8981F7
:1020D0000F900F900F90CF91DF910895DF93CF93E2
:1020E00000D00F92CDB7DEB79B838A83EA81FB8154
:1020F000828D898389810F900F900F90CF91DF910E
:102100000895DF93CF9300D0CDB7DEB79A8389834C
:10211000E981FA81808191810E94A20889819A8156
:102120000E94A2080F900F90CF91DF910895DF9346
:10213000CF9300D000D00F92CDB7DEB79A838983BA
:102140007C836B834D83E981FA81848D882309F434
:1021500074C08D81882399F5E981FA816481758144
:10216000E981FA81848D482F50E02B813C81CB019D
:10217000B9010E941F19E981FA8124813581E98121
:10218000FA81848D882F90E0820F931FE981FA8174
:1021900095838483E981FA8124813581E981FA81FB
:1021A000828193812817390708F447C0E981FA81B1
:1021B00080819181E981FA81958384833EC0E981A0
:1021C000FA8166817781E981FA81848D482F50E018
:1021D0002B813C81CB01B9010E941F19E981FA8151
:1021E00026813781E981FA81848D882F90E090954E
:1021F00081959F4F820F931FE981FA819783868390
:10220000E981FA8126813781E981FA818081918192
:102210002817390790F4E981FA8122813381E98115
:10222000FA81848D882F90E0909581959F4F820F41
:10223000931FE981FA8197838683E981FA81828DF0
:102240008F5FE981FA81828F0F900F900F900F902E
:102250000F90CF91DF910895DF93CF9300D000D0FE
:10226000CDB7DEB79A8389837C836B83E981FA815A
:1022700080819181009789F1E981FA8126813781F6
:10228000E981FA81848D882F90E0820F931FE98184
:10229000FA8197838683E981FA8126813781E981F2
:1022A000FA81828193812817390740F0E981FA8108
:1022B00080819181E981FA8197838683E981FA811E
:1022C00046815781E981FA81848D282F30E08B8106
:1022D0009C81BA01A9010E941F190F900F900F90C5
:1022E0000F90CF91DF910895DF93CF9300D0CDB7BA
:1022F000DEB79A8389830FB6F8940F9215C0E981EF
:10230000FA8181898823A9F089819A8141960E9466
:10231000AC16882311F00E948A17E981FA81868D14
:102320008150E981FA81868FE981FA81868D1816BC
:1023300034F3E981FA818FEF868F0F900FBE0FB6CD
:10234000F8940F9215C0E981FA8180858823A9F05D
:1023500089819A8108960E94AC16882311F00E9408
:102360008A17E981FA81858D8150E981FA81858F0B
:10237000E981FA81858D181634F3E981FA818FEFAE
:10238000858F0F900FBE0F900F90CF91DF91089522
:10239000DF93CF9300D00F92CDB7DEB79B838A83B4
:1023A0000FB6F8940F92EA81FB81828D19828823FF
:1023B00011F481E089830F900FBE89810F900F90F7
:1023C0000F90CF91DF910895DF93CF9300D00F92BC
:1023D000CDB7DEB79B838A83EA81FB81828D198228
:1023E000882311F481E0898389810F900F900F90E9
:1023F000CF91DF910895DF93CF9300D00F92CDB7A7
:10240000DEB79B838A830FB6F8940F92EA81FB8133
:10241000928DEA81FB81838D1982981711F481E0F6
:1024200089830F900FBE89810F900F900F90CF91ED
:10243000DF910895DF93CF9300D00F92CDB7DEB731
:102440009B838A83EA81FB81928DEA81FB81838D64
:102450001982981711F481E0898389810F900F9078
:102460000F90CF91DF910895AF92BF92CF92DF92FC
:10247000EF92FF920F931F93DF93CF93CDB7DEB709
:1024800064970FB6F894DEBF0FBECDBF9F838E83D7
:10249000798768875B874A873D872C870E87F88A0C
:1024A000EF86DA8AC98ABC8AAB8A8A859B852989A4
:1024B0003A89B9010E94B9189C838B838B819C81D6
:1024C000009709F499C0EB81FC812789308D8A85BA
:1024D0009B850197820F931F9A8389838B819C81AF
:1024E00028853985EB89FC89AA85BB85B9014E858C
:1024F0009F018D010E949E1789819A812E813F81C3
:102500004C855D85B9010E94E10AEB81FC819183D4
:1025100080838F859889009731F0EF85F8898B81CA
:102520009C81918380830FB6F8940F928091080369
:102530008F5F8093080380910503909106030097B5
:1025400069F48B819C8190930603809305038091AD
:1025500008038130A9F40E94F51712C080910D0381
:10256000882371F4E0910503F091060396898E8526
:10257000891730F08B819C8190930603809305032B
:10258000EB81FC81968980910B03891728F4EB81FC
:10259000FC81868980930B03809112038F5F809367
:1025A0001203EB81FC81968980910C03891728F432
:1025B000EB81FC81868980930C03EB81FC81868909
:1025C000282F30E0C901880F991F880F991F880FA5
:1025D000991F820F931FAC014D5E5C4F8B819C81D4
:1025E0009C012E5F3F4FCA01B9010E94020981E0A0
:1025F0008D830F900FBE02C08FEF8D838D81813050
:1026000071F480910D03882351F0E0910503F0915E
:10261000060396898E85981710F40E94A00C8D8170
:1026200064960FB6F894DEBF0FBECDBFCF91DF9199
:102630001F910F91FF90EF90DF90CF90BF90AF90E0
:102640000895DF93CF9300D000D000D0CDB7DEB790
:102650009C838B830FB6F8940F92209105033091E1
:1026600006038B819C818217930711F41C821B82C5
:102670008B819C81009739F480910503909106032A
:102680009E838D8304C08B819C819E838D838D81ED
:102690009E819A83898389819A8102960E94BA09D0
:1026A000E981FA8184899589009729F089819A8145
:1026B0000C960E94BA0989819A819C012E5F3F4F36
:1026C0008FE593E0B9010E940209809107038F5FB3
:1026D00080930703809112038F5F809312030F9002
:1026E0000FBE80910D03882331F08B819C81009770
:1026F00011F40E94A00C26960FB6F894DEBF0FBE10
:10270000CDBFCF91DF910895DF93CF93CDB7DEB7E3
:1027100028970FB6F894DEBF0FBECDBF9E838D8382
:1027200078876F8319820E947014ED81FE81208169
:1027300031818F819885820F931F9C838B83ED81DC
:10274000FE81208131818091090390910A038217D3
:102750009307A8F4ED81FE81208131818B819C81DA
:102760008217930700F52091090330910A038B81AA
:102770009C8128173907B8F481E0898314C0ED8162
:10278000FE81208131818B819C818217930748F0E3
:102790002091090330910A038B819C812817390706
:1027A00010F481E08983ED81FE818B819C8191838E
:1027B00080838981882359F08091050390910603D5
:1027C00002960E94BA098B819C810E9470180E9417
:1027D0007C148A838A81882311F40E94A00C289695
:1027E0000FB6F894DEBF0FBECDBFCF91DF91089535
:1027F000DF93CF9300D000D00F92CDB7DEB79D838B
:102800008C8319828C819D810097D1F00E94701475
:102810002091090330910A038C819D81820F931FBF
:102820009B838A83809105039091060302960E9400
:10283000BA098A819B810E9470180E947C14898346
:102840008981882311F40E94A00C0F900F900F90A3
:102850000F900F90CF91DF910895AF92BF92CF92DA
:10286000DF92EF92FF920F93DF93CF930F92CDB74A
:10287000DEB720E630E084E997E1B90144E650E0B4
:1028800020E030E000E0EE24FF24CC24DD24AA2464
:10289000BB240E94341289838981813051F4F894D9
:1028A00081E080930D0310920A03109209030E94A5
:1028B000640C0F90CF91DF910F91FF90EF90DF901C
:1028C000CF90BF90AF900895DF93CF93CDB7DEB791
:1028D000F89410920D030E94990CCF91DF91089506
:1028E000DF93CF93CDB7DEB780910E038F5F8093D8
:1028F0000E03CF91DF910895DF93CF9300D000D0E6
:10290000CDB7DEB71A820FB6F8940F9280910E03FE
:10291000815080930E0380910E03882309F06CC0D0
:1029200080910803882309F467C0198241C0E091AF
:102930005B03F0915C03868197819C838B838B8101
:102940009C810C960E94BA098B819C8102960E9400
:10295000BA09EB81FC81968980910C03891728F4D0
:10296000EB81FC81868980930C03EB81FC81868955
:10297000282F30E0C901880F991F880F991F880FF1
:10298000991F820F931F8D5E9C4F2B813C812E5F80
:102990003F4FB9010E940209EB81FC819689E091C9
:1029A0000503F09106038689981710F081E089836A
:1029B00080915603882309F0BACF80910F038823B2
:1029C00071F007C00E943B1580910F0381508093E6
:1029D0000F0380910F038823A9F781E08983898100
:1029E000813021F080911003813031F481E08A83BD
:1029F000109210030E94A00C0F900FBE8A810F90BE
:102A00000F900F900F90CF91DF910895DF93CF93A8
:102A100000D0CDB7DEB70FB6F8940F9280910903BE
:102A200090910A039A8389830F900FBE89819A81BE
:102A30000F900F90CF91DF910895DF93CF9300D047
:102A40000F92CDB7DEB719828091090390910A03E6
:102A50009B838A838A819B810F900F900F90CF91E7
:102A6000DF910895DF93CF93CDB7DEB78091080350
:102A7000CF91DF910895DF93CF9300D000D000D0A5
:102A8000CDB7DEB780910E03882309F0BBC08091DB
:102A9000090390910A03019690930A038093090316
:102AA0008091090390910A030097D1F58091520318
:102AB000909153039C838B83809154039091550391
:102AC00090935303809352038B819C819093550381
:102AD00080935403809111038F5F80931103E091E1
:102AE0005203F09153038081882339F48FEF9FEFD5
:102AF000909366008093650013C0E0915203F091BB
:102B000053030580F681E02D868197819E838D8316
:102B1000ED81FE81828193819093660080936500B0
:102B20002091090330910A0380916500909166001D
:102B30002817390708F46BC0E0915203F091530352
:102B40008081882339F48FEF9FEF90936600809304
:102B500065005DC0E0915203F09153030580F6815A
:102B6000E02D868197819E838D83ED81FE81828118
:102B700093819A8389832091090330910A03898183
:102B80009A812817390738F489819A8190936600D1
:102B9000809365003CC08D819E8102960E94BA0997
:102BA000ED81FE8184899589009729F08D819E8130
:102BB0000C960E94BA09ED81FE81968980910C03E2
:102BC000891728F4ED81FE81868980930C03ED81BD
:102BD000FE818689282F30E0C901880F991F880F50
:102BE000991F880F991F820F931FAC014D5E5C4F98
:102BF0008D819E819C012E5F3F4FCA01B9010E94C9
:102C000002099ACF80910F038F5F80930F0326965E
:102C10000FB6F894DEBF0FBECDBFCF91DF91089500
:102C2000DF93CF9300D0CDB7DEB780910E0388231A
:102C300049F081E08093100354C080910C038150CF
:102C400080930C0380910C03282F30E0C901880F7A
:102C5000991F880F991F880F991F820F931FFC01DE
:102C6000ED5EFC4F8081882341F380910C03282F77
:102C700030E0C901880F991F880F991F880F991F8D
:102C8000820F931F8D5E9C4F9A838983E981FA811D
:102C90000180F281E02D82819381E981FA81928322
:102CA0008183E981FA812181328189819A81039628
:102CB0002817390759F4E981FA810180F281E02D62
:102CC00082819381E981FA8192838183E981FA810A
:102CD0000180F281E02D8681978190930603809395
:102CE00005030F900F90CF91DF910895DF93CF935D
:102CF00000D000D000D0CDB7DEB79C838B837E831D
:102D00006D834B815C8180910503909106039C014A
:102D1000245F3F4FCA01B9010E944E09809105030B
:102D20009091060302960E94BA09209109033091FE
:102D30000A038D819E81820F931F9A8389838981E3
:102D40009A810E94701826960FB6F894DEBF0FBEC7
:102D5000CDBFCF91DF910895DF93CF9300D000D006
:102D60000F92CDB7DEB79D838C83EC81FD8105800A
:102D7000F681E02D868197819B838A838A819B815E
:102D80000C960E94BA0980910E03882361F58A810E
:102D90009B8102960E94BA09EA81FB819689809103
:102DA0000C03891728F4EA81FB81868980930C0340
:102DB000EA81FB818689282F30E0C901880F991F9D
:102DC000880F991F880F991F820F931FAC014D5ECA
:102DD0005C4F8A819B819C012E5F3F4FCA01B901E4
:102DE0000E9402090AC08A819B819C01245F3F4F97
:102DF00086E593E0B9010E940209EA81FB81968988
:102E0000E0910503F09106038689981718F081E098
:102E1000898301C0198289810F900F900F900F90C4
:102E20000F90CF91DF910895DF93CF9300D0CDB76E
:102E3000DEB79A83898380911103E981FA818083C7
:102E40008091090390910A03E981FA819283818339
:102E50000F900F90CF91DF910895DF93CF9300D023
:102E600000D00F92CDB7DEB79B838A837D836C83BE
:102E70000FB6F8940F92EA81FB8190818091110343
:102E8000981771F0EA81FB812181328180910903D9
:102E900090910A038217930718F081E089832FC06D
:102EA0002091090330910A03EA81FB81818192819B
:102EB000281B390BEC81FD8180819181281739070E
:102EC000E0F4EC81FD8140815181EA81FB81218127
:102ED00032818091090390910A03B901681B790B33
:102EE000CB01840F951FEC81FD81918380838A81C2
:102EF0009B810E941417198202C081E089830F9080
:102F00000FBE89810F900F900F900F900F90CF916F
:102F1000DF910895DF93CF93CDB7DEB781E0809343
:102F20001003CF91DF910895DF93CF9300D0CDB7F9
:102F3000DEB79A8389830E943218FDCF0F931F93C7
:102F4000DF93CF93CDB7DEB729970FB6F894DEBFE6
:102F50000FBECDBF9A8389837C836B834D833F8370
:102F60002E831987088789819A8149962B813C8114
:102F7000B90148E050E00E942F19E981FA8110A2BE
:102F80008D81853010F084E08D83E981FA818D8117
:102F9000868B89819A8102960E94F20889819A81A2
:102FA0000C960E94F208E981FA8189819A819187C1
:102FB00080878D81282F30E085E090E0821B930B85
:102FC000E981FA8195878487E981FA8189819A81EB
:102FD000938B828B29960FB6F894DEBF0FBECDBFC0
:102FE000CF91DF911F910F910895DF93CF930F92AF
:102FF000CDB7DEB7198213C08981282F30E0C9010F
:10300000880F991F880F991F880F991F820F931F90
:103010008D5E9C4F0E94C80889818F5F898389815A
:10302000853050F380E493E00E94C80889E493E07F
:103030000E94C80886E593E00E94C8088FE593E0E7
:103040000E94C80880E493E0909353038093520356
:1030500089E493E090935503809354030F90CF91AC
:10306000DF910895DF93CF9300D00F92CDB7DEB7F5
:1030700080910703882371F10E94701480915F038F
:103080001B82882311F481E08B830E947C148B8146
:10309000882301F50FB6F8940F92E0916403F09144
:1030A0006503868197819A83898389819A810296B3
:1030B0000E94BA098091080381508093080380918F
:1030C00007038150809307030F900FBE89819A8177
:1030D0000E9409190F900F900F90CF91DF910895E2
:1030E000DF93CF9300D0CDB7DEB79A838983E09189
:1030F0000503F091060389819A819383828320914D
:10310000090330910A0389819A818217930770F429
:10311000809154039091550320910503309106034B
:103120002E5F3F4FB9010E944E091EC040915203CD
:103130005091530380910503909106039C012E5FEB
:103140003F4FCA01B9010E944E092091650030919C
:10315000660089819A818217930730F489819A8168
:1031600090936600809365000F900F90CF91DF9150
:103170000895DF93CF93CDB7DEB728970FB6F894B5
:10318000DEBF0FBECDBF9C838B837E836D8381E2C8
:1031900090E00E945C089A83898389819A810097D4
:1031A00069F18D819E81009739F48B819C810E9409
:1031B0005C0898878F8304C08D819E8198878F8358
:1031C000E981FA818F819885908F878BE981FA81D7
:1031D0008789908D009739F489819A810E94A2088D
:1031E0001A8219820BC0E981FA818789908D2B811F
:1031F0003C8165EA70E0A9010E94281989819A81C1
:1032000028960FB6F894DEBF0FBECDBFCF91DF91E9
:103210000895DF93CF9300D0CDB7DEB79A8389832B
:10322000E981FA818789908D0E94A20889819A811B
:103230000E94A2080F900F90CF91DF910895FB019B
:10324000DC0102C001900D9241505040D8F7089522
:10325000DC0101C06D9341505040E0F70895FB013F
:10326000DC014150504048F001900D920020C9F718
:1032700001C01D9241505040E0F70895F894FFCFEF
:0832800049444C4500FFFF002A
:00000001FF
