:100000000C942A000C94E1040C940E050C943B050E
:100010000C9447000C9447000C9447000C94C40DBA
:100020000C9447000C9447000C9447000C94470034
:100030000C9447000C9447000C9447000C94470024
:100040000C9447000C9447000C9447000C94470014
:100050000C94470011241FBECFE5D8E0DEBFCDBF12
:1000600010E0A0E6B0E0E8EAF5E302C005900D92EA
:10007000A836B107D9F713E0A8E6B0E001C01D9299
:10008000A837B107E1F70E94630A0C94D21A0C94C6
:100090000000DF93CF9300D000D00F92CDB7DEB732
:1000A00089836A834B838981282F30E03D832C83A9
:1000B0008C819D818130910509F447C02C813D815F
:1000C000223031052CF48C819D81009771F0CBC0DA
:1000D0002C813D812230310509F467C08C819D81DE
:1000E0008330910509F491C0BEC08B818823A9F4A7
:1000F000AAE3B0E0EAE3F0E08081482F8A81282F6C
:1001000030E081E090E0022E02C0880F991F0A942F
:10011000E2F7809584238C93A6C08B81813009F00F
:10012000A2C0AAE3B0E0EAE3F0E08081482F8A8130
:10013000282F30E081E090E0022E02C0880F991F46
:100140000A94E2F7842B8C938EC08B818823A9F4C8
:10015000A7E3B0E0E7E3F0E08081482F8A81282F11
:1001600030E081E090E0022E02C0880F991F0A94CF
:10017000E2F7809584238C9376C08B81813009F0DF
:1001800072C0A7E3B0E0E7E3F0E08081482F8A8106
:10019000282F30E081E090E0022E02C0880F991FE6
:1001A0000A94E2F7842B8C935EC08B818823A9F498
:1001B000A4E3B0E0E4E3F0E08081482F8A81282FB7
:1001C00030E081E090E0022E02C0880F991F0A946F
:1001D000E2F7809584238C9346C08B81813009F0AF
:1001E00042C0A4E3B0E0E4E3F0E08081482F8A81DC
:1001F000282F30E081E090E0022E02C0880F991F86
:100200000A94E2F7842B8C932EC08B818823A9F467
:10021000A1E3B0E0E1E3F0E08081482F8A81282F5C
:1002200030E081E090E0022E02C0880F991F0A940E
:10023000E2F7809584238C9316C08B81813099F4EA
:10024000A1E3B0E0E1E3F0E08081482F8A81282F2C
:1002500030E081E090E0022E02C0880F991F0A94DE
:10026000E2F7842B8C930F900F900F900F900F90CC
:10027000CF91DF910895DF93CF9300D000D00F92FC
:10028000CDB7DEB789836A834B838981282F30E01D
:100290003D832C838C819D818130910509F447C079
:1002A0002C813D81223031052CF48C819D81009779
:1002B00071F0CBC02C813D812230310509F467C03B
:1002C0008C819D818330910509F491C0BEC08B81E2
:1002D0008823A9F4ABE3B0E0EBE3F0E08081482FA2
:1002E0008A81282F30E081E090E0022E02C0880F42
:1002F000991F0A94E2F7809584238C93A6C08B8182
:10030000813009F0A2C0ABE3B0E0EBE3F0E0808124
:10031000482F8A81282F30E081E090E0022E02C031
:10032000880F991F0A94E2F7842B8C938EC08B81DF
:100330008823A9F4A8E3B0E0E8E3F0E08081482F47
:100340008A81282F30E081E090E0022E02C0880FE1
:10035000991F0A94E2F7809584238C9376C08B8151
:10036000813009F072C0A8E3B0E0E8E3F0E08081FA
:10037000482F8A81282F30E081E090E0022E02C0D1
:10038000880F991F0A94E2F7842B8C935EC08B81AF
:100390008823A9F4A5E3B0E0E5E3F0E08081482FED
:1003A0008A81282F30E081E090E0022E02C0880F81
:1003B000991F0A94E2F7809584238C9346C08B8121
:1003C000813009F042C0A5E3B0E0E5E3F0E08081D0
:1003D000482F8A81282F30E081E090E0022E02C071
:1003E000880F991F0A94E2F7842B8C932EC08B817F
:1003F0008823A9F4A2E3B0E0E2E3F0E08081482F93
:100400008A81282F30E081E090E0022E02C0880F20
:10041000991F0A94E2F7809584238C9316C08B81F0
:10042000813099F4A2E3B0E0E2E3F0E08081482F6C
:100430008A81282F30E081E090E0022E02C0880FF0
:10044000991F0A94E2F7842B8C930F900F900F90D2
:100450000F900F90CF91DF910895DF93CF9300D04D
:1004600000D00F92CDB7DEB78A836B838A81282FA5
:1004700030E03D832C834C815D814130510541F159
:100480008C819D818230910534F42C813D81211530
:10049000310561F052C04C815D814230510551F10E
:1004A0008C819D8183309105B9F147C0E9E3F0E08B
:1004B0008081282F30E08B81882F90E0A90102C035
:1004C000559547958A95E2F7CA018170898335C0B1
:1004D000E6E3F0E08081282F30E08B81882F90E0E8
:1004E000A90102C0559547958A95E2F7CA01817026
:1004F000898323C0E3E3F0E08081282F30E08B8103
:10050000882F90E0A90102C0559547958A95E2F79A
:10051000CA018170898311C0E0E3F0E08081282F57
:1005200030E08B81882F90E0A90102C05595479556
:100530008A95E2F7CA018170898389810F900F90B3
:100540000F900F900F90CF91DF910895DF93CF938D
:1005500000D000D000D0CDB7DEB789836A835C833A
:100560004B838981282F30E03E832D834D815E812E
:100570004130510559F18D819E818230910534F4CD
:100580002D813E812115310569F05BC04D815E8171
:100590004230510579F18D819E818330910509F4B6
:1005A0003DC04FC0E9E3F0E08081282F30E08A8130
:1005B000882F90E0A90102C0559547958A95E2F7EA
:1005C000CA018170EB81FC8180833BC0E6E3F0E0EF
:1005D0008081282F30E08A81882F90E0A90102C015
:1005E000559547958A95E2F7CA018170EB81FC81A8
:1005F000808327C0E3E3F0E08081282F30E08A8108
:10060000882F90E0A90102C0559547958A95E2F799
:10061000CA018170EB81FC81808313C0E0E3F0E0CC
:100620008081282F30E08A81882F90E0A90102C0C4
:10063000559547958A95E2F7CA018170EB81FC8157
:10064000808326960FB6F894DEBF0FBECDBFCF9144
:10065000DF910895DF93CF9300D000D0CDB7DEB700
:1006600089836A838981282F30E03C832B838B81A7
:100670009C8181309105D1F02B813C812230310564
:100680002CF48B819C81009761F01EC02B813C81F2
:100690002230310581F08B819C818330910581F07E
:1006A00013C0EAE3F0E08A8180830EC0E7E3F0E064
:1006B0008A81808309C0E4E3F0E08A81808304C0FA
:1006C000E1E3F0E08A8180830F900F900F900F900C
:1006D000CF91DF910895DF93CF9300D000D0CDB7B5
:1006E000DEB789836A838981282F30E03C832B839E
:1006F0008B819C8181309105D1F02B813C8122300E
:1007000031052CF48B819C81009761F01EC02B81F8
:100710003C812230310581F08B819C8183309105B1
:1007200081F013C0EBE3F0E08A8180830EC0E8E340
:10073000F0E08A81808309C0E5E3F0E08A8180836C
:1007400004C0E2E3F0E08A8180830F900F900F9065
:100750000F90CF91DF910895DF93CF93CDB7DEB7A0
:10076000A5E5B0E0E5E5F0E0808182608C93A5E549
:10077000B0E0E5E5F0E080818E7F8C93A5E5B0E008
:10078000E5E5F0E0808188608C93A5E5B0E0E5E5E3
:10079000F0E0808184608C93A4E5B0E0E4E5F0E0D3
:1007A000808180648C93CF91DF910895DF93CF9304
:1007B00000D00F92CDB7DEB789838981282F30E032
:1007C0003B832A838A819B818130910521F12A8193
:1007D0003B81223031052CF48A819B81009761F0A6
:1007E00046C02A813B812230310521F18A819B81DB
:1007F0008330910571F13BC0A5E5B0E0E5E5F0E09F
:10080000808182608C93A5E5B0E0E5E5F0E0808131
:100810008E7F8C932CC0A5E5B0E0E5E5F0E080810B
:1008200082608C93A5E5B0E0E5E5F0E08081816031
:100830008C931DC0A5E5B0E0E5E5F0E08081816026
:100840008C93A5E5B0E0E5E5F0E080818D7F8C93A9
:100850000EC0A5E5B0E0E5E5F0E080818E7F8C93E9
:10086000A5E5B0E0E5E5F0E080818D7F8C930F9009
:100870000F900F90CF91DF910895DF93CF9300D029
:100880000F92CDB7DEB789838981282F30E03B8373
:100890002A838A819B818130910589F02A813B815D
:1008A00022303105A1F08A819B810097B9F4ABE534
:1008B000B0E0EBE5F0E0808180648C930FC0ABE5A5
:1008C000B0E0EBE5F0E0808180688C9307C0ABE599
:1008D000B0E0EBE5F0E0808180628C930F900F90A8
:1008E0000F90CF91DF910895DF93CF9300D00F92B7
:1008F000CDB7DEB789838981282F30E03B832A83F7
:100900008A819B818130910589F02A813B81223047
:100910003105A1F08A819B810097B9F4ABE5B0E085
:10092000EBE5F0E080818F7B8C930FC0ABE5B0E00E
:10093000EBE5F0E080818F778C9307C0ABE5B0E00A
:10094000EBE5F0E080818F7D8C930F900F900F90FE
:10095000CF91DF910895DF93CF9300D0CDB7DEB76D
:100960009A83898389819A81909369008093680032
:100970000F900F90CF91DF910895DF93CF9300D028
:10098000CDB7DEB79A83898389819A8190936B0072
:1009900080936A000F900F90CF91DF910895DF93BD
:1009A000CF9300D0CDB7DEB79A83898389819A81AE
:1009B00090936D0080936C000F900F90CF91DF911A
:1009C00008951F920F920FB60F9211242F933F9309
:1009D0004F935F936F937F938F939F93AF93BF9347
:1009E000EF93FF93DF93CF93CDB7DEB7E09168002D
:1009F000F09169000995CF91DF91FF91EF91BF913F
:100A0000AF919F918F917F916F915F914F913F91A6
:100A10002F910F900FBE0F901F9018951F920F925D
:100A20000FB60F9211242F933F934F935F936F93C1
:100A30007F938F939F93AF93BF93EF93FF93DF9336
:100A4000CF93CDB7DEB7E0916A00F0916B000995C6
:100A5000CF91DF91FF91EF91BF91AF919F918F91D6
:100A60007F916F915F914F913F912F910F900FBEAA
:100A70000F901F9018951F920F920FB60F9211248E
:100A80002F933F934F935F936F937F938F939F9396
:100A9000AF93BF93EF93FF93DF93CF93CDB7DEB7C1
:100AA000E0916C00F0916D000995CF91DF91FF917D
:100AB000EF91BF91AF919F918F917F916F915F91D6
:100AC0004F913F912F910F900FBE0F901F9018954F
:100AD000DF93CF93CDB7DEB7AFE5B0E0EFE5F0E061
:100AE000808180688C93CF91DF910895DF93CF93BD
:100AF000CDB7DEB7AFE5B0E0EFE5F0E080818F770E
:100B00008C93CF91DF910895DF93CF93CDB7DEB76C
:100B100027970FB6F894DEBF0FBECDBF9D838C83A1
:100B20006E834F838AE190E00E945C089A838983F8
:100B300089819A81009709F46FC080916E0090912D
:100B40006F00009741F489819A8190936F008093A0
:100B50006E000E94EB078E81823010F081E08E8360
:100B6000E981FA81118E108EE981FA818E81868B5E
:100B7000E981FA818F81878BE981FA818C819D815E
:100B80009183808389819A8102960E94F2088981EB
:100B90009A810C960E94F208E981FA8189819A81F2
:100BA00091878087E981FA8189819A81938B828BF1
:100BB0008E81282F30E085E090E0821B930BE98145
:100BC000FA8195878487E981FA81968980917000FE
:100BD000891728F4E981FA81868980937000E98178
:100BE000FA818689282F30E0C901880F991F880F64
:100BF000991F880F991F820F931FAC0149585F4FAF
:100C000089819A819C012E5F3F4FCA01B9010E94E0
:100C1000020981E08B8302C08FEF8B838B81279643
:100C20000FB6F894DEBF0FBECDBFCF91DF91089510
:100C3000DF93CF9300D000D000D0CDB7DEB79C8338
:100C40008B837E836D8320917100309172008B8144
:100C50009C81820F931F9A83898380916E0090916B
:100C60006F0002960E94BA09E0916E00F0916F0049
:100C700089819A81938382832091710030917200DF
:100C800089819A818217930770F480919D009091D9
:100C90009E0020916E0030916F002E5F3F4FB90192
:100CA0000E944E090DC080919B0090919C00209164
:100CB0006E0030916F002E5F3F4FB9010E944E09C8
:100CC0008D819E81009761F080916E0090916F0000
:100CD0009C01245F3F4F8D819E81B9010E944E0986
:100CE00026960FB6F894DEBF0FBECDBFCF91DF9131
:100CF0000895DF93CF9300D0CDB7DEB73AC0F89414
:100D0000E091A400F091A500868197819A83898360
:100D100089819A810C960E94BA09789489819A8176
:100D200002960E94BA09E981FA8196898091700041
:100D3000891728F4E981FA81868980937000E98116
:100D4000FA818689282F30E0C901880F991F880F02
:100D5000991F880F991F820F931FAC0149585F4F4D
:100D600089819A819C012E5F3F4FCA01B9010E947F
:100D7000020980919F00882309F0C1CF0F900F9046
:100D8000CF91DF910895DF93CF9300D000D0CDB7FE
:100D9000DEB70E9479162091730030917400821B97
:100DA000930B909376008093750085C080917100BD
:100DB00090917200019690937200809371008091DF
:100DC000750090917600019790937600809375005E
:100DD0008091710090917200009709F064C0809139
:100DE0009B0090919C009A83898380919D009091B3
:100DF0009E0090939C0080939B0089819A819093A0
:100E00009E0080939D004FC0E0919B00F0919C005C
:100E10000580F681E02D868197819C838B83EB8111
:100E2000FC81228133818091710090917200821740
:100E3000930708F440C0F8948B819C8102960E942D
:100E4000BA09EB81FC8184899589009729F08B810F
:100E50009C810C960E94BA097894EB81FC8196895A
:100E600080917000891728F4EB81FC81868980933A
:100E70007000EB81FC818689282F30E0C901880F42
:100E8000991F880F991F880F991F820F931FAC011C
:100E900049585F4F8B819C819C012E5F3F4FCA0157
:100EA000B9010E940209E0919B00F0919C008081B1
:100EB000882309F0A9CF8091750090917600009762
:100EC00009F074CF8091710090917200909374003A
:100ED000809373000F900F900F900F90CF91DF9140
:100EE0000895DF93CF9300D0CDB7DEB70E94790687
:100EF0000E94C3060AC080917000882309F466C06E
:100F00008091700081508093700080917000282F34
:100F100030E0C901880F991F880F991F880F991F0A
:100F2000820F931FFC01E958FF4F8081882319F33A
:100F300080917000282F30E0C901880F991F880F19
:100F4000991F880F991F820F931F89589F4F9A836B
:100F50008983E981FA810180F281E02D8281938188
:100F6000E981FA8192838183E981FA812181328149
:100F700089819A8103962817390759F4E981FA8102
:100F80000180F281E02D82819381E981FA8192834F
:100F90008183E981FA810180F281E02D8681978148
:100FA00090936F0080936E00E0916E00F0916F005F
:100FB0004081518180916E0090916F00E0916E00B0
:100FC000F0916F002789622FFA0109950F900F9019
:100FD000CF91DF910895DF93CF930F92CDB7DEB716
:100FE000198213C08981282F30E0C901880F991F09
:100FF000880F991F880F991F820F931F89589F4F41
:101000000E94C80889818F5F89838981823050F36B
:1010100089E890E00E94C80882E990E00E94C80830
:101020008FE990E00E94C80889E890E090939C00C6
:1010300080939B0082E990E090939E0080939D00B6
:101040000F90CF91DF910895DF93CF9300D000D020
:101050000F92CDB7DEB79D838C83EC81FD81058037
:10106000F681E02D868197819B838A838A819B818B
:101070000C960E94BA098A819B819C01245F3F4F94
:101080008FE990E0B9010E940209EA81FB8196890B
:10109000E0916E00F0916F008689981718F081E05A
:1010A000898301C0198289810F900F900F900F9052
:1010B0000F90CF91DF910895DF93CF9300D000D0B0
:1010C000CDB7DEB79C838B831A8219820E94E31509
:1010D0008091A8009091A9002B813C81820F931FE1
:1010E00022E08835920718F52091A8003091A900D8
:1010F0008B819C81280F391F8091A8009091A900B5
:1011000082179307A0F48091A8009091A9008655BA
:101110009F4F9A8389832091A8003091A9008B81E9
:101120009C81820F931F9093A9008093A8000E9436
:10113000EF1589819A810F900F900F900F90CF91AA
:10114000DF910895DF93CF9300D0CDB7DEB79A83B8
:1011500089830F900F90CF91DF910895DF93CF9304
:10116000CDB7DEB71092A9001092A800CF91DF9101
:101170000895DF93CF93CDB7DEB72091A8003091CB
:10118000A90088E592E0821B930BCF91DF9108952F
:10119000DF93CF9300D0CDB7DEB79A83898389815F
:1011A0009A810396E981FA8192838183E981FA81A8
:1011B0008FEF9FEF9483838389819A810396E981DE
:1011C000FA819683858389819A810396E981FA81E0
:1011D00090878783E981FA8110820F900F90CF91D9
:1011E000DF910895DF93CF9300D0CDB7DEB79A8318
:1011F0008983E981FA81118610860F900F90CF9133
:10120000DF910895DF93CF9300D000D000D0CDB709
:10121000DEB79C838B837E836D83EB81FC81818130
:1012200092819A838983E981FA8182819381ED8118
:10123000FE8193838283EB81FC8181819281ED81A8
:10124000FE8195838483E981FA810280F381E02D18
:101250008D819E81958384838D819E81E981FA8130
:10126000938382838D819E81EB81FC819283818334
:10127000ED81FE818B819C8191878087EB81FC8150
:1012800080818F5FEB81FC81808326960FB6F89476
:10129000DEBF0FBECDBFCF91DF910895DF93CF9317
:1012A000CDB7DEB728970FB6F894DEBF0FBECDBF1F
:1012B0009E838D8378876F83EF81F885808191810C
:1012C0009A83898389819A812FEF8F3F920739F41E
:1012D000ED81FE81878190859C838B8318C08D81F1
:1012E0009E8103969C838B8306C0EB81FC81828167
:1012F00093819C838B83EB81FC810280F381E02DC1
:101300002081318189819A818217930770F7EB815F
:10131000FC8182819381EF81F88593838283EF81C1
:10132000F8850280F381E02D8F81988595838483F1
:10133000EF81F8858B819C81958384838F8198854B
:10134000EB81FC8193838283EF81F8858D819E817F
:1013500091878087ED81FE8180818F5FED81FE81A5
:10136000808328960FB6F894DEBF0FBECDBFCF9115
:10137000DF910895DF93CF9300D000D0CDB7DEB7D3
:101380009C838B83EB81FC81A281B381EB81FC8107
:101390008481958115969C938E931497EB81FC81A3
:1013A000A481B581EB81FC818281938113969C930A
:1013B0008E931297EB81FC81808591859A83898336
:1013C000E981FA81218132818B819C81281739073B
:1013D00041F4EB81FC8184819581E981FA819283DA
:1013E0008183EB81FC8111861086E981FA818081FD
:1013F0008150E981FA8180830F900F900F900F90B8
:10140000CF91DF910895DF93CF9300D0CDB7DEB7B2
:101410009A83898380910803882349F480E060E0FF
:1014200041E00E943B0181E08093080307C080E017
:1014300060E040E00E943B011092080388EE93E0D8
:101440000E940C14E7CFDF93CF9300D0CDB7DEB767
:101450009A83898380910903882349F480E061E0BD
:1014600041E00E943B0181E08093090307C080E0D6
:1014700061E040E00E943B011092090388EB9BE091
:101480000E940C14E7CFDF93CF9300D0CDB7DEB727
:101490009A83898380910A03882349F480E062E07B
:1014A00041E00E943B0181E080930A0307C080E095
:1014B00062E040E00E943B0110920A0388E893E159
:1014C0000E940C14E7CFAF92BF92CF92DF92EF92BF
:1014D000FF920F93DF93CF93CDB7DEB780E06FEF2E
:1014E0000E942A0383E062E040E00E94490083E01A
:1014F00062E041E00E943B010E94AC0380EC9AE074
:101500000E94AB0480E00E943D040E94680583E0D5
:101510009AE0E2E0F3E060E070E044E650E020E0D2
:1015200030E000E07F01CC24DD24AA24BB240E940B
:10153000481283E29AE0E4E0F3E060E070E044E621
:1015400050E020E030E001E07F01CC24DD24AA243B
:10155000BB240E94481283E49AE0E6E0F3E060E0F6
:1015600070E044E650E020E030E002E07F01CC246F
:10157000DD24AA24BB240E9448120E94A015FFCF9C
:10158000DF93CF93CDB7DEB780910B038823B1F4FF
:1015900080910203909103030E94411480910403FF
:1015A000909105030E9441148091060390910703D6
:1015B0000E94411481E080930B0314C080910203C8
:1015C000909103030E94D714809104039091050326
:1015D0000E94D71480910603909107030E94D714AC
:1015E00010920B03CF91DF910895DF93CF93CDB786
:1015F000DEB728970FB6F894DEBF0FBECDBF9C8331
:101600008B837E836D8358874F83EB81FC8181E1DF
:1016100080838B819C8101979C838B83EB81FC81F0
:1016200082E280838B819C8101979C838B83EB81F9
:10163000FC8183E380838B819C8101979C838B83D6
:101640008D819E819A8389838981EB81FC8180834E
:101650008B819C8101979C838B8389819A81892FBF
:1016600099279A8389838981EB81FC8180838B818F
:101670009C8101979C838B83EB81FC8110828B8101
:101680009C8101979C838B83EB81FC8180E8808324
:101690008B819C8101979C838B83EB81FC811082E1
:1016A0008B819C8101979C838B83EB81FC8182E001
:1016B00080838B819C8101979C838B83EB81FC8150
:1016C00083E080838B819C8101979C838B83EB815A
:1016D000FC8184E080838B819C8101979C838B8338
:1016E000EB81FC8185E080838B819C8101979C83C9
:1016F0008B83EB81FC8186E080838B819C810197C9
:101700009C838B83EB81FC8187E080838B819C8130
:1017100001979C838B83EB81FC8188E080838B81A4
:101720009C8101979C838B83EB81FC8189E0808382
:101730008B819C8101979C838B83EB81FC8180E171
:1017400080838B819C8101979C838B83EB81FC81BF
:1017500081E180838B819C8101979C838B83EB81CA
:10176000FC8182E180838B819C8101979C838B83A8
:10177000EB81FC8183E180838B819C8101979C8339
:101780008B83EB81FC8184E180838B819C81019739
:101790009C838B83EB81FC8185E180838B819C81A1
:1017A00001979C838B83EB81FC8186E180838B8115
:1017B0009C8101979C838B83EB81FC8187E18083F3
:1017C0008B819C8101979C838B83EB81FC8188E1D9
:1017D00080838B819C8101979C838B83EB81FC812F
:1017E00089E180838B819C8101979C838B83EB8132
:1017F000FC8180E280838B819C8101979C838B8319
:10180000EB81FC8181E280838B819C8101979C83A9
:101810008B83EB81FC8182E280838B819C810197A9
:101820009C838B83EB81FC8183E280838B819C8111
:1018300001979C838B838F8198859A838983898183
:10184000EB81FC8180838B819C8101979C838B83BE
:1018500089819A81892F99279A8389838981EB814C
:10186000FC8180838B819C8101979C838B83EB819E
:10187000FC8186E280838B819C8101979C838B8392
:10188000EB81FC8187E280838B819C8101979C8323
:101890008B83EB81FC8188E280838B819C81019723
:1018A0009C838B83EB81FC8189E280838B819C818B
:1018B00001979C838B83EB81FC8180E380838B8108
:1018C0009C8101979C838B83EB81FC8181E38083E6
:1018D0008B819C8101979C838B838B819C81289633
:1018E0000FB6F894DEBF0FBECDBFCF91DF91089544
:1018F000DF93CF93CDB7DEB70E94680DA0910C03A4
:10190000B0910D03CD91CDBFDD91DEBFFF91EF9181
:10191000DF91CF91BF91AF919F918F917F916F9107
:101920005F914F913F912F911F910F91FF90EF90F9
:10193000DF90CF90BF90AF909F908F907F906F90EF
:101940005F904F903F902F901F900F900FBE0F9081
:10195000089581E0CF91DF910895DF93CF93CDB7C4
:10196000DEB7CF91DF9108950F920FB6F8940F92E2
:101970001F9211242F923F924F925F926F927F920B
:101980008F929F92AF92BF92CF92DF92EF92FF928F
:101990000F931F932F933F934F935F936F937F9377
:1019A0008F939F93AF93BF93CF93DF93EF93FF9367
:1019B000A0910C03B0910D030DB60D920EB60D92D1
:1019C0000E948317A0910C03B0910D03CD91CDBF60
:1019D000DD91DEBFFF91EF91DF91CF91BF91AF918C
:1019E0009F918F917F916F915F914F913F912F9137
:1019F0001F910F91FF90EF90DF90CF90BF90AF902D
:101A00009F908F907F906F905F904F903F902F901E
:101A10001F900F900FBE0F9008950F920FB6F8947D
:101A20000F921F9211242F923F924F925F926F92CA
:101A30007F928F929F92AF92BF92CF92DF92EF925E
:101A4000FF920F931F932F933F934F935F936F9347
:101A50007F938F939F93AF93BF93CF93DF93EF9336
:101A6000FF93A0910C03B0910D030DB60D920EB62D
:101A70000D920E94AE160E948317A0910C03B091A4
:101A80000D03CD91CDBFDD91DEBFFF91EF91DF91D1
:101A9000CF91BF91AF919F918F917F916F915F9106
:101AA0004F913F912F911F910F91FF90EF90DF90F9
:101AB000CF90BF90AF909F908F907F906F905F90EE
:101AC0004F903F902F901F900F900FBE0F90089552
:101AD000DF93CF9300D000D000D0CDB7DEB780E445
:101AE0009FE1A0E0B0E08B839C83AD83BE838B81BC
:101AF0009C81AD81BE81689415F8B695A7959795A0
:101B000087951694D1F78B839C83AD83BE838B819D
:101B10009C81AD81BE810197A109B1098B839C8312
:101B2000AD83BE838B8189838B819C81AD81BE8196
:101B3000892F9A2FAB2FBB278B839C83AD83BE83CA
:101B40008B818A83EBE4F0E08A818083EAE4F0E031
:101B5000898180838BE08983EEE4F0E08981808352
:101B6000E9E5F0E080818983898180618983E9E505
:101B7000F0E08981808326960FB6F894DEBF0FBE11
:101B8000CDBFCF91DF9108950E940D0D1895DF9381
:101B9000CF93CDB7DEB728970FB6F894DEBF0FBE50
:101BA000CDBF8F8368871A8219828F81882309F4B9
:101BB0008CC08FE190E00E945C089E838D838D81B4
:101BC0009E81009709F481C08F81282F30E088859D
:101BD000882F90E0AC01249FC001259F900D349F79
:101BE000900D112401969C838B838B819C810E9494
:101BF0005C08ED81FE8191838083ED81FE8180818F
:101C00009181009709F45DC0ED81FE814081518191
:101C10008F81282F30E08885882F90E0BC01269F97
:101C2000C001279F900D369F900D1124840F951FA2
:101C3000ED81FE8193838283ED81FE81128EED81A1
:101C4000FE8180819181ED81FE8195838483ED8188
:101C5000FE81408151818F81882F90E09C0121502D
:101C600030408885882F90E0BC01269FC001279FC7
:101C7000900D369F900D1124840F951FED81FE81EC
:101C800097838683ED81FE818F81838FED81FE8135
:101C90008885848FED81FE818FEF858FED81FE81B8
:101CA0008FEF868F8D819E8108960E94C8088D8156
:101CB0009E8141960E94C8088D819E819A83898366
:101CC00004C08D819E810E94A20889819A812896F4
:101CD0000FB6F894DEBF0FBECDBFCF91DF91089550
:101CE000DF93CF93CDB7DEB72C970FB6F894DEBF56
:101CF0000FBECDBF9E838D8378876F835A874987B8
:101D00002B8719820FB6F8940F92ED81FE81928D88
:101D1000ED81FE81838D9817D8F48D819E812F816E
:101D20003885B9014B850E94AB10ED81FE81818918
:101D3000882349F08D819E8141960E94321881301E
:101D400011F40E94B40C0F900FBE81E08C875CC030
:101D500089859A85009721F40F900FBE1C8654C088
:101D60008981882331F4CE0102960E949A1881E07D
:101D700089830F900FBE0E94E3150FB6F8940F925F
:101D8000ED81FE81858D8F3F19F4ED81FE81158EE9
:101D9000ED81FE81868D8F3F19F4ED81FE81168ED7
:101DA0000F900FBECE0102969E01275F3F4FB901F3
:101DB0000E94B318882309F58D819E810E940F121D
:101DC0008823A1F08D819E81089629853A85B901E5
:101DD0000E94E9178D819E810E9488110E94EF1553
:101DE000882309F08FCF0E94B40C8CCF8D819E8107
:101DF0000E9488110E94EF1585CF8D819E810E94DF
:101E000088110E94EF151C868C852C960FB6F894CD
:101E1000DEBF0FBECDBFCF91DF910895DF93CF938B
:101E2000CDB7DEB729970FB6F894DEBF0FBECDBF92
:101E30009C838B837E836D8358874F832987198288
:101E4000EB81FC81928DEB81FC81838D981740F5AD
:101E50008B819C812D813E81B90149850E94AB1007
:101E6000EB81FC81868D8F3F89F4EB81FC81818938
:101E7000882399F08B819C8141960E943218882397
:101E800061F0EF81F88581E0808307C0EB81FC8100
:101E9000868D8F5FEB81FC81868F81E08A8301C014
:101EA0001A828A8129960FB6F894DEBF0FBECDBF85
:101EB000CF91DF910895DF93CF93CDB7DEB72E9703
:101EC0000FB6F894DEBF0FBECDBF98878F837A8799
:101ED00069875C874B872D871B820FB6F8940F921A
:101EE000EF81F885828D882309F43FC0EF81F88562
:101EF000868197819A8389838F81988529853A8500
:101F0000B9010E9440118D858823B1F4EF81F885D5
:101F1000828D8150EF81F885828FEF81F8858085F1
:101F20008823F1F08F81988508960E9432188130BD
:101F3000B9F40E94B40C14C0EF81F88589819A81AC
:101F400097838683EF81F8858189882349F08F8183
:101F5000988541960E943218882311F00E94B40C93
:101F60000F900FBE81E08E875CC08B859C850097AB
:101F700021F40F900FBE1E8654C08B81882331F44C
:101F8000CE0104960E949A1881E08B830F900FBEB9
:101F90000E94E3150FB6F8940F92EF81F885858DB6
:101FA0008F3F19F4EF81F885158EEF81F885868DC6
:101FB0008F3F19F4EF81F885168E0F900FBECE017A
:101FC00004969E01255F3F4FB9010E94B3188823F4
:101FD00009F58F8198850E94DC118823A1F08F81FB
:101FE000988541962B853C85B9010E94E9178F8120
:101FF00098850E9488110E94EF15882309F06DCF03
:102000000E94B40C6ACF8F8198850E9488110E942B
:10201000EF1563CF8F8198850E9488110E94EF157C
:102020001E868E852E960FB6F894DEBF0FBECDBFEE
:10203000CF91DF910895DF93CF93CDB7DEB7289787
:102040000FB6F894DEBF0FBECDBF9C838B837E831B
:102050006D8358874F831982EB81FC81828D8823A1
:1020600071F18B819C812D813E81B9010E944011CB
:10207000EB81FC81828D8150EB81FC81828FEB8131
:10208000FC81858D8F3F89F4EB81FC8180858823DD
:1020900099F08B819C8108960E943218882361F008
:1020A000EF81F88581E0808307C0EB81FC81858D1D
:1020B0008F5FEB81FC81858F81E08A8301C01A826A
:1020C0008A8128960FB6F894DEBF0FBECDBFCF91A0
:1020D000DF910895DF93CF9300D00F92CDB7DEB795
:1020E0009B838A830FB6F8940F92EA81FB81828DDD
:1020F00089830F900FBE89810F900F900F90CF9121
:10210000DF910895DF93CF9300D00F92CDB7DEB764
:102110009B838A83EA81FB81828D898389810F90E9
:102120000F900F90CF91DF910895DF93CF9300D060
:10213000CDB7DEB79A838983E981FA818081918165
:102140000E94A20889819A810E94A2080F900F9094
:10215000CF91DF910895DF93CF9300D000D00F92FD
:10216000CDB7DEB79A8389837C836B834D83E98106
:10217000FA81848D882309F474C08D81882399F5B0
:10218000E981FA8164817581E981FA81848D482F22
:1021900050E02B813C81CB01B9010E94B31AE98147
:1021A000FA8124813581E981FA81848D882F90E03C
:1021B000820F931FE981FA8195838483E981FA81F3
:1021C00024813581E981FA81828193812817390739
:1021D00008F447C0E981FA8180819181E981FA811F
:1021E000958384833EC0E981FA8166817781E981A4
:1021F000FA81848D482F50E02B813C81CB01B901BD
:102200000E94B31AE981FA8126813781E981FA8136
:10221000848D882F90E0909581959F4F820F931F1A
:10222000E981FA8197838683E981FA812681378162
:10223000E981FA81808191812817390790F4E98139
:10224000FA8122813381E981FA81848D882F90E09F
:10225000909581959F4F820F931FE981FA81978313
:102260008683E981FA81828D8F5FE981FA81828F8D
:102270000F900F900F900F900F90CF91DF910895D6
:10228000DF93CF9300D000D0CDB7DEB79A83898398
:102290007C836B83E981FA8180819181009789F148
:1022A000E981FA8126813781E981FA81848D882F3D
:1022B00090E0820F931FE981FA8197838683E981F9
:1022C000FA8126813781E981FA81828193812817F9
:1022D000390740F0E981FA8180819181E981FA81B1
:1022E00097838683E981FA8146815781E981FA8162
:1022F000848D282F30E08B819C81BA01A9010E9436
:10230000B31A0F900F900F900F90CF91DF91089517
:10231000DF93CF9300D0CDB7DEB79A8389830FB612
:10232000F8940F9215C0E981FA8181898823A9F078
:1023300089819A8141960E943218882311F00E9467
:102340001A19E981FA81868D8150E981FA81868F97
:10235000E981FA81868D181634F3E981FA818FEFCD
:10236000868F0F900FBE0FB6F8940F9215C0E981BB
:10237000FA8180858823A9F089819A8108960E9434
:102380003218882311F00E941A19E981FA81858D8B
:102390008150E981FA81858FE981FA81858D18164E
:1023A00034F3E981FA818FEF858F0F900FBE0F9084
:1023B0000F90CF91DF910895DF93CF9300D00F92CC
:1023C000CDB7DEB79B838A830FB6F8940F92EA816C
:1023D000FB81828D1982882311F481E089830F901B
:1023E0000FBE89810F900F900F90CF91DF910895CC
:1023F000DF93CF9300D00F92CDB7DEB79B838A8354
:10240000EA81FB81828D1982882311F481E089831E
:1024100089810F900F900F90CF91DF910895DF93F6
:10242000CF9300D00F92CDB7DEB79B838A830FB6D0
:10243000F8940F92EA81FB81928DEA81FB81838D72
:102440001982981711F481E089830F900FBE89815A
:102450000F900F900F90CF91DF910895DF93CF935E
:1024600000D00F92CDB7DEB79B838A83EA81FB81D0
:10247000928DEA81FB81838D1982981711F481E096
:10248000898389810F900F900F90CF91DF910895EC
:10249000AF92BF92CF92DF92EF92FF920F931F9372
:1024A000DF93CF93CDB7DEB764970FB6F894DEBF56
:1024B0000FBECDBF9F838E83798768875B874A87EE
:1024C0003D872C870E87F88AEF86DA8AC98ABC8A0C
:1024D000AB8A8A859B8529893A89B9010E944D1A60
:1024E0009C838B838B819C81009709F499C0EB813D
:1024F000FC812789308D8A859B850197820F931FE8
:102500009A8389838B819C8128853985EB89FC8915
:10251000AA85BB85B9014E859F018D010E942E19A8
:1025200089819A812E813F814C855D85B9010E9408
:10253000F50AEB81FC81918380838F8598890097D0
:1025400031F0EF85F8898B819C81918380830FB670
:10255000F8940F9280910F038F5F80930F03809107
:102560000C0390910D03009769F48B819C819093EB
:102570000D0380930C0380910F038130A9F40E9416
:10258000851912C080911403882371F4E0910C0323
:10259000F0910D0396898E85891730F08B819C818F
:1025A00090930D0380930C03EB81FC8196898091BD
:1025B0001203891728F4EB81FC818689809312032A
:1025C000809119038F5F80931903EB81FC819689B9
:1025D00080911303891728F4EB81FC81868980930D
:1025E0001303EB81FC818689282F30E0C901880F15
:1025F000991F880F991F880F991F820F931FAC0195
:10260000465E5C4F8B819C819C012E5F3F4FCA01CF
:10261000B9010E94020981E08D830F900FBE02C0B4
:102620008FEF8D838D81813071F480911403882325
:1026300051F0E0910C03F0910D0396898E85981767
:1026400010F40E94B40C8D8164960FB6F894DEBF2E
:102650000FBECDBFCF91DF911F910F91FF90EF90F3
:10266000DF90CF90BF90AF900895DF93CF9300D0CD
:1026700000D000D0CDB7DEB79C838B830FB6F89423
:102680000F9220910C0330910D038B819C81821756
:10269000930711F41C821B828B819C81009739F473
:1026A00080910C0390910D039E838D8304C08B81D8
:1026B0009C819E838D838D819E819A83898389816C
:1026C0009A8102960E94BA09E981FA8184899589E2
:1026D000009729F089819A810C960E94BA09898114
:1026E0009A819C012E5F3F4F86E693E0B9010E94DC
:1026F000020980910E038F5F80930E03809119036E
:102700008F5F809319030F900FBE8091140388236D
:1027100031F08B819C81009711F40E94B40C2696B5
:102720000FB6F894DEBF0FBECDBFCF91DF910895F5
:10273000DF93CF93CDB7DEB728970FB6F894DEBFFF
:102740000FBECDBF9E838D8378876F8319820E94D1
:10275000E315ED81FE81208131818F819885820F83
:10276000931F9C838B83ED81FE8120813181809139
:1027700010039091110382179307A8F4ED81FE8155
:10278000208131818B819C818217930700F52091F4
:102790001003309111038B819C8128173907B8F4FD
:1027A00081E0898314C0ED81FE81208131818B819C
:1027B0009C818217930748F02091100330911103F8
:1027C0008B819C812817390710F481E08983ED8182
:1027D000FE818B819C81918380838981882359F03C
:1027E00080910C0390910D0302960E94BA098B818F
:1027F0009C810E94041A0E94EF158A838A81882393
:1028000011F40E94B40C28960FB6F894DEBF0FBEE8
:10281000CDBFCF91DF910895DF93CF9300D000D04B
:102820000F92CDB7DEB79D838C8319828C819D81F9
:102830000097D1F00E94E31520911003309111030D
:102840008C819D81820F931F9B838A8380910C03CF
:1028500090910D0302960E94BA098A819B810E9481
:10286000041A0E94EF1589838981882311F40E943C
:10287000B40C0F900F900F900F900F90CF91DF91AD
:102880000895DF93CF9300D000D000D0CDB7DEB74E
:102890009C838B830FB6F8940F9220910C03309198
:1028A0000D038B819C818217930711F41C821B827C
:1028B0008B819C81009739F480910C0390910D03DA
:1028C0009E838D8304C08B819C819E838D838D81AB
:1028D0009E819A83898389819A8102960E94BA098E
:1028E000E981FA8184899589009729F089819A8103
:1028F0000C960E94BA0989819A819C012E5F3F4FF4
:102900008FE693E0B9010E9402090F900FBE8B8100
:102910009C810097A1F480911403882319F00E94F0
:10292000B40C0DC090916F0380910F03981729F498
:1029300010920D0310920C0302C00E94831726967A
:102940000FB6F894DEBF0FBECDBFCF91DF910895D3
:10295000DF93CF9300D000D00F92CDB7DEB79D8329
:102960008C831B828C819D819A838983E981FA8182
:102970008285938523E08F36920781F4E981FA817D
:102980008489958923E08D35920741F0E981FA81A8
:1029900084899589009711F481E08B838B810F9056
:1029A0000F900F900F900F90CF91DF910895DF93CC
:1029B000CF9300D000D0CDB7DEB79C838B838B81C3
:1029C0009C819A83898389819A81009709F44CC0FC
:1029D00020910C0330910D0389819A81821793070E
:1029E00009F442C00FB6F8940F9289819A810E942F
:1029F000A8148130B9F589819A8102960E94BA099A
:102A0000E981FA81968980911303891728F4E98175
:102A1000FA81868980931303E981FA818689282FB8
:102A200030E0C901880F991F880F991F880F991FDF
:102A3000820F931FAC01465E5C4F89819A819C0195
:102A40002E5F3F4FCA01B9010E940209E981FA8154
:102A50009689E0910C03F0910D038689981710F088
:102A60000E94B40C0F900FBE0F900F900F900F901C
:102A7000CF91DF910895DF93CF9300D000D00F92D4
:102A8000CDB7DEB79D838C831B828C819D819A8319
:102A9000898389819A810E94A814813009F047C0F6
:102AA000809115038823C9F5E981FA819689E0911F
:102AB0000C03F0910D0386891B82981710F081E0BA
:102AC0008B8389819A8102960E94BA09E981FA81F1
:102AD000968980911303891728F4E981FA81868900
:102AE00080931303E981FA818689282F30E0C90198
:102AF000880F991F880F991F880F991F820F931FA6
:102B0000AC01465E5C4F89819A819C012E5F3F4FEC
:102B1000CA01B9010E9402090AC089819A819C01F7
:102B2000245F3F4F8DE593E0B9010E9402098B813C
:102B30000F900F900F900F900F90CF91DF9108950D
:102B4000AF92BF92CF92DF92EF92FF920F93DF93FB
:102B5000CF930F92CDB7DEB720E630E084E299E163
:102B6000B90144E650E020E030E000E0EE24FF242C
:102B7000CC24DD24AA24BB240E94481289838981A5
:102B8000813051F4F89481E0809314031092110382
:102B9000109210030E94780C0F90CF91DF910F914B
:102BA000FF90EF90DF90CF90BF90AF900895DF93AC
:102BB000CF93CDB7DEB7F894109214030E94AD0CFA
:102BC000CF91DF910895DF93CF93CDB7DEB780919A
:102BD00015038F5F80931503CF91DF910895DF93E5
:102BE000CF9300D000D0CDB7DEB71A820FB6F894DD
:102BF0000F928091150381508093150380911503E6
:102C0000882309F06CC080910F03882309F467C002
:102C1000198241C0E0916203F0916303868197813C
:102C20009C838B838B819C810C960E94BA098B813B
:102C30009C8102960E94BA09EB81FC819689809161
:102C40001303891728F4EB81FC8186898093130391
:102C5000EB81FC818689282F30E0C901880F991FFC
:102C6000880F991F880F991F820F931F865E9C4FB4
:102C70002B813C812E5F3F4FB9010E940209EB81FD
:102C8000FC819689E0910C03F0910D0386899817D9
:102C900010F081E0898380915D03882309F0BACF29
:102CA00080911603882371F007C00E94AE168091B0
:102CB0001603815080931603809116038823A9F789
:102CC00081E089838981813021F0809117038130EF
:102CD00031F481E08A83109217030E94B40C0F90A4
:102CE0000FBE8A810F900F900F900F90CF91DF91C0
:102CF0000895DF93CF9300D0CDB7DEB70FB6F89429
:102D00000F9280911003909111039A8389830F9001
:102D10000FBE89819A810F900F90CF91DF91089516
:102D2000DF93CF9300D00F92CDB7DEB71982809199
:102D30001003909111039B838A838A819B810F905A
:102D40000F900F90CF91DF910895DF93CF93CDB780
:102D5000DEB780910F03CF91DF910895DF93CF937A
:102D600000D000D000D0CDB7DEB780911503882306
:102D700009F0BBC0809110039091110301969093CC
:102D80001103809310038091100390911103009719
:102D9000D1F58091590390915A039C838B83809144
:102DA0005B0390915C0390935A03809359038B814A
:102DB0009C8190935C0380935B03809118038F5FE9
:102DC00080931803E0915903F0915A03808188237E
:102DD00039F48FEF9FEF909366008093650013C0E6
:102DE000E0915903F0915A030580F681E02D868128
:102DF00097819E838D83ED81FE8182819381909363
:102E0000660080936500209110033091110380913A
:102E10006500909166002817390708F46BC0E091AF
:102E20005903F0915A038081882339F48FEF9FEF83
:102E300090936600809365005DC0E0915903F09126
:102E40005A030580F681E02D868197819E838D83CC
:102E5000ED81FE81828193819A8389832091100381
:102E60003091110389819A812817390738F48981B3
:102E70009A8190936600809365003CC08D819E810D
:102E800002960E94BA09ED81FE8184899589009796
:102E900029F08D819E810C960E94BA09ED81FE81F8
:102EA000968980911303891728F4ED81FE81868924
:102EB00080931303ED81FE818689282F30E0C901BC
:102EC000880F991F880F991F880F991F820F931FD2
:102ED000AC01465E5C4F8D819E819C012E5F3F4F11
:102EE000CA01B9010E9402099ACF809116038F5F2F
:102EF0008093160326960FB6F894DEBF0FBECDBFA3
:102F0000CF91DF910895DF93CF9300D0CDB7DEB797
:102F100080911503882349F081E08093170354C002
:102F20008091130381508093130380911303282F02
:102F300030E0C901880F991F880F991F880F991FCA
:102F4000820F931FFC01E65EFC4F8081882341F3D2
:102F500080911303282F30E0C901880F991F880F33
:102F6000991F880F991F820F931F865E9C4F9A832B
:102F70008983E981FA810180F281E02D8281938148
:102F8000E981FA8192838183E981FA812181328109
:102F900089819A8103962817390759F4E981FA81C2
:102FA0000180F281E02D82819381E981FA8192830F
:102FB0008183E981FA810180F281E02D8681978108
:102FC00090930D0380930C030F900F90CF91DF919E
:102FD0000895DF93CF9300D000D000D0CDB7DEB7F7
:102FE0009C838B837E836D834B815C8180910C03FA
:102FF00090910D039C01245F3F4FCA01B9010E94CB
:103000004E0980910C0390910D0302960E94BA091B
:103010008D819E812FEF8F3F920769F480910C0381
:1030200090910D039C012E5F3F4F8FE693E0B90115
:103030000E9402090EC020911003309111038D816E
:103040009E81820F931F9A83898389819A810E942E
:10305000041A26960FB6F894DEBF0FBECDBFCF91EF
:10306000DF910895DF93CF9300D000D00F92CDB7BA
:10307000DEB79D838C83EC81FD810580F681E02D98
:10308000868197819B838A838A819B810C960E948B
:10309000BA0980911503882361F58A819B81029684
:1030A0000E94BA09EA81FB819689809113038917EE
:1030B00028F4EA81FB81868980931303EA81FB81EE
:1030C0008689282F30E0C901880F991F880F991F22
:1030D000880F991F820F931FAC01465E5C4F8A8157
:1030E0009B819C012E5F3F4FCA01B9010E940209DA
:1030F0000AC08A819B819C01245F3F4F8DE593E04C
:10310000B9010E940209EA81FB819689E0910C03D2
:10311000F0910D038689981718F081E0898301C02A
:10312000198289810F900F900F900F900F90CF917F
:10313000DF910895DF93CF9300D0CDB7DEB79A83A8
:10314000898380911803E981FA818083809110033B
:1031500090911103E981FA81928381830F900F90FE
:10316000CF91DF910895DF93CF9300D000D00F92DD
:10317000CDB7DEB79B838A837D836C830FB6F894CB
:103180000F92EC81FD81808191812FEF8F3F92071B
:1031900011F4198244C0EA81FB8190818091180367
:1031A000981771F0EA81FB812181328180911003AF
:1031B000909111038217930718F081E089832FC043
:1031C0002091100330911103EA81FB81818192816A
:1031D000281B390BEC81FD818081918128173907EB
:1031E000E0F4EC81FD8140815181EA81FB81218104
:1031F00032818091100390911103B901681B790B02
:10320000CB01840F951FEC81FD81918380838A819E
:103210009B810E949A18198202C081E089830F90D5
:103220000FBE89810F900F900F900F900F90CF914C
:10323000DF910895DF93CF93CDB7DEB781E0809320
:103240001703CF91DF910895DF93CF9300D0CDB7CF
:10325000DEB79A8389830E94C619FDCF0F931F930F
:10326000DF93CF93CDB7DEB729970FB6F894DEBFC3
:103270000FBECDBF9A8389837C836B834D833F834D
:103280002E831987088789819A8149962B813C81F1
:10329000B90148E050E00E94C31AE981FA8110A206
:1032A0008D81853010F084E08D83E981FA818D81F4
:1032B000868B89819A8102960E94F20889819A817F
:1032C0000C960E94F208E981FA8189819A8191879E
:1032D00080878D81282F30E085E090E0821B930B62
:1032E000E981FA8195878487E981FA8189819A81C8
:1032F000938B828B29960FB6F894DEBF0FBECDBF9D
:10330000CF91DF911F910F910895DF93CF930F928B
:10331000CDB7DEB7198213C08981282F30E0C901EB
:10332000880F991F880F991F880F991F820F931F6D
:10333000865E9C4F0E94C80889818F5F898389813E
:10334000853050F387E493E00E94C80880E593E05D
:103350000E94C8088DE593E00E94C80886E693E0C5
:103360000E94C8088FE693E00E94C80887E493E0B3
:1033700090935A038093590380E593E090935C0304
:1033800080935B030F90CF91DF910895DF93CF93EC
:1033900000D00F92CDB7DEB780910E03882371F174
:1033A0000E94E315809166031B82882311F481E05B
:1033B0008B830E94EF158B81882301F50FB6F8945B
:1033C0000F92E0916B03F0916C03868197819A8351
:1033D000898389819A8102960E94BA0980910F039C
:1033E000815080930F0380910E03815080930E03D0
:1033F0000F900FBE89819A810E949D1A0F900F90A5
:103400000F90CF91DF910895DF93CF9300D0CDB788
:10341000DEB79A838983E0910C03F0910D038981D3
:103420009A819383828320911003309111038981C3
:103430009A818217930770F480915B0390915C03EB
:1034400020910C0330910D032E5F3F4FB9010E9474
:103450004E091EC04091590350915A0380910C03AC
:1034600090910D039C012E5F3F4FCA01B9010E944C
:103470004E09209165003091660089819A818217FA
:10348000930730F489819A81909366008093650058
:103490000F900F90CF91DF910895DF93CF93CDB729
:1034A000DEB728970FB6F894DEBF0FBECDBF9C8362
:1034B0008B837E836D8381E290E00E945C089A8317
:1034C000898389819A81009769F18D819E81009716
:1034D00039F48B819C810E945C0898878F8304C09B
:1034E0008D819E8198878F83E981FA818F8198856C
:1034F000908F878BE981FA818789908D009739F4C5
:1035000089819A810E94A2081A8219820BC0E981DE
:10351000FA818789908D2B813C8165EA70E0A90151
:103520000E94BC1A89819A8128960FB6F894DEBF52
:103530000FBECDBFCF91DF910895DF93CF9300D021
:10354000CDB7DEB79A838983E981FA818789908D27
:103550000E94A20889819A810E94A2080F900F9070
:10356000CF91DF910895FB01DC0102C001900D9223
:1035700041505040D8F70895DC0101C06D9341508F
:103580005040E0F70895FB01DC014150504048F005
:1035900001900D920020C9F701C01D92415050408A
:0835A000E0F70895F894FFCF55
:0835A80049444C4500FFFF00FF
:00000001FF
