:100000000C942A000C94150B0C94420B0C946F0B5F
:100010000C9447000C9447000C9447000C94311347
:100020000C9447000C9447000C9447000C949011DA
:100030000C9447000C9447000C9447000C94470024
:100040000C9447000C9447000C9447000C94470014
:100050000C94470011241FBECFE5D8E0DEBFCDBF12
:1000600010E0A0E6B0E0E6E3F9E202C005900D92F0
:10007000A238B107D9F710E0A2E8B0E001C01D92A4
:10008000AC38B107E1F70E94E3130C9499140C9477
:100090000000EF92FF920F931F937B018C0120E0F1
:1000A00030E040E05FE40E94490388238CF0C801FF
:1000B000B70120E030E040E05FE40E94C1010E940F
:1000C000A9039B01AC01205030404040504806C07D
:1000D000C801B7010E94A9039B01AC01B901CA0183
:1000E0001F910F91FF90EF900895A0E0B0E0EBE733
:1000F000F0E00C946214DC012B01FA019C91923027
:1001000008F439C1EB018881823008F433C194309E
:1001100069F4843009F02FC111969C91119789815F
:10012000981709F428C1A0E6B0E025C1843009F48D
:1001300021C18230A9F4923009F01DC19A01AD01AC
:1001400088E0EA010990AE01E90109929E0181501F
:10015000C1F7E201898111969C918923818308C1AD
:10016000923009F407C112962D903C901397EB0141
:100170008A819B811496AD90BD90CD90DC901797AD
:10018000EC80FD800E811F819101281B390BB90184
:1001900037FF04C066277727621B730B6032710537
:1001A0000CF061C0121613066CF537014801062EDB
:1001B00004C096948794779467940A94D2F721E0C8
:1001C00030E040E050E004C0220F331F441F551FB1
:1001D0006A95D2F721503040404050402E213F21B7
:1001E00040235123211531054105510521F021E01E
:1001F00030E040E050E079018A01E628F72808293C
:1002000019293CC0232BD1F1260E371E350146019A
:10021000062E04C096948794779467940A94D2F734
:1002200021E030E040E050E004C0220F331F441FC3
:10023000551F6A95D2F721503040404050402A2146
:100240003B214C215D21211531054105510521F04E
:1002500021E030E040E050E059016A01A628B728CB
:10026000C828D9280BC0821593052CF01C01AA249C
:10027000BB24650103C0EE24FF24870111969C91E5
:10028000D20111968C91981709F445C0992339F041
:10029000A80197012A193B094C095D0906C0A6016E
:1002A00095012E193F09400B510B57FD08C01182D3
:1002B0003382228224833583468357831DC081E0A5
:1002C00081833382228288279927DC01821B930B4A
:1002D000A40BB50B84839583A683B7830DC0220F2F
:1002E000331F441F551F24833583468357838281E0
:1002F000938101979383828324813581468157813D
:10030000DA01C9010197A109B1098F5F9F4FAF4F72
:10031000BF4328F30BC0918333822282EA0CFB1C7B
:100320000C1D1D1DE482F5820683178383E0808304
:10033000248135814681578157FF1AC0C901AA27F8
:1003400097FDA095BA2F81709070A070B0705695EF
:10035000479537952795822B932BA42BB52B848318
:100360009583A683B7838281938101969383828349
:10037000DF0101C0D201CD01CDB7DEB7E2E10C94BF
:100380007E14A0E2B0E0E7ECF1E00C946E14698317
:100390007A838B839C832D833E834F835887E9E048
:1003A000EE2EF12CEC0EFD1ECE010196B7010E943F
:1003B000D2048E010F5E1F4FCE010596B8010E9438
:1003C000D2048A8991E089278A8BC701B801AE01DE
:1003D000475E5F4F0E9475000E94FD03A096E6E015
:1003E0000C948A14A0E2B0E0E8EFF1E00C946E14F3
:1003F00069837A838B839C832D833E834F835887C5
:10040000F9E0EF2EF12CEC0EFD1ECE010196B701A6
:100410000E94D2048E010F5E1F4FCE010596B801D7
:100420000E94D204C701B801AE01475E5F4F0E942F
:1004300075000E94FD03A096E6E00C948A14A0E2E9
:10044000B0E0E5E2F2E00C94621469837A838B8376
:100450009C832D833E834F835887CE010196BE0136
:10046000675F7F4F0E94D204CE010596BE016F5E8A
:100470007F4F0E94D2049985923088F0898982301A
:10048000C8F0943019F4823051F404C0843029F457
:10049000923081F480E690E0C6C0923049F420E0CA
:1004A0009A858A89981321E02A87CE010996BBC0D4
:1004B000823049F420E09A858A89981321E02A8BBA
:1004C000CE014196B0C02D843E844F8458886D88FB
:1004D0007E888F88988CEE24FF248701AA24BB2471
:1004E000650140E050E060E070E0E0E0F0E0C10174
:1004F00081709070892BE9F0E60CF71C081D191D1E
:100500009A01AB012A0D3B1D4C1D5D1D80E090E062
:10051000A0E0B0E0E614F7040805190520F481E036
:1005200090E0A0E0B0E0BA01A901480F591F6A1F8E
:100530007B1FAA0CBB1CCC1CDD1C97FE08C081E0F5
:1005400090E0A0E0B0E0A82AB92ACA2ADB2A3196B6
:10055000E032F10549F0660C771C881C991C569412
:10056000479437942794C3CFFA85EA892B893C892D
:100570008B859C85280F391F2E5F3F4F17C0CA01FE
:1005800081709070892B61F016950795F794E79428
:1005900080E090E0A0E0B0E8E82AF92A0A2B1B2BC3
:1005A00076956795579547952F5F3F4F77FDE7CF36
:1005B0000CC0440F551F661F771F17FD4160EE0CDE
:1005C000FF1C001F111F21503040403090E05907A0
:1005D00090E0690790E4790760F32B8F3C8FDB0193
:1005E000CA018F779070A070B07080349105A1051A
:1005F000B10561F447FD0AC0E114F10401051105DC
:1006000029F0405C5F4F6F4F7F4F40781A8EFE1786
:1006100011F081E08A8F4D8F5E8F6F8F78A383E01A
:10062000898FCE0149960E94FD03A096E2E10C94C9
:100630007E14A8E1B0E0EFE1F3E00C946E1469835E
:100640007A838B839C832D833E834F83588789E0F5
:10065000E82EF12CEC0EFD1ECE010196B7010E9492
:10066000D2048E010F5E1F4FCE010596B8010E9485
:10067000D2048985823040F08989823028F0C70110
:10068000B8010E944A0501C08FEF6896E6E00C941D
:100690008A14A8E1B0E0EFE4F3E00C946E146983EF
:1006A0007A838B839C832D833E834F83588789E095
:1006B000E82EF12CEC0EFD1ECE010196B7010E9432
:1006C000D2048E010F5E1F4FCE010596B8010E9425
:1006D000D2048985823040F08989823028F0C701B0
:1006E000B8010E944A0501C08FEF6896E6E00C94BD
:1006F0008A14A8E1B0E0EFE7F3E00C946E1469838C
:100700007A838B839C832D833E834F83588789E034
:10071000E82EF12CEC0EFD1ECE010196B7010E94D1
:10072000D2048E010F5E1F4FCE010596B8010E94C4
:10073000D2048985823040F08989823028F0C7014F
:10074000B8010E944A0501C081E06896E6E00C9479
:100750008A14ACE0B0E0EFEAF3E00C947214698321
:100760007A838B839C83CE010196BE016B5F7F4FA2
:100770000E94D2048D81823061F1823050F1843048
:1007800021F48E81882351F12EC02F81388537FDC9
:1007900020C06E812F3131051CF06623F9F023C093
:1007A0008EE190E0821B930B29853A854B855C8511
:1007B00004C056954795379527958A95D2F76623B5
:1007C000B1F050954095309521953F4F4F4F5F4F79
:1007D0000EC020E030E040E050E009C02FEF3FEFD6
:1007E0004FEF5FE704C020E030E040E050E8B9019F
:1007F000CA012C96E2E00C948E14DF92EF92FF92E5
:100800000F931F93FC01E480F58006811781D1804E
:100810008081823048F480E090E0A0E1B0E0E82AF6
:10082000F92A0A2B1B2BA5C0843009F49FC0823003
:1008300021F4EE24FF24870105C0E114F104010531
:10084000110519F4E0E0F0E096C0628173819FEF3A
:10085000623879070CF05BC022E83FEF261B370BAC
:100860002A3131052CF020E030E040E050E02AC091
:10087000B801A701022E04C0769567955795479554
:100880000A94D2F781E090E0A0E0B0E004C0880FC5
:10089000991FAA1FBB1F2A95D2F70197A109B10979
:1008A0008E219F21A023B1230097A105B10521F03E
:1008B00081E090E0A0E0B0E09A01AB01282B392B59
:1008C0004A2B5B2BDA01C9018F779070A070B07052
:1008D00080349105A105B10539F427FF09C0205CDA
:1008E0003F4F4F4F5F4F04C0215C3F4F4F4F5F4F13
:1008F000E0E0F0E02030A0E03A07A0E04A07A0E402
:100900005A0710F0E1E0F0E079018A0127C0603871
:10091000710564F5FB01E158FF4FD801C7018F77DE
:100920009070A070B07080349105A105B10539F4C4
:10093000E7FE0DC080E490E0A0E0B0E004C08FE3EB
:1009400090E0A0E0B0E0E80EF91E0A1F1B1F17FFA1
:1009500005C016950795F794E794319687E01695AC
:100960000795F794E7948A95D1F705C0EE24FF2404
:100970008701EFEFF0E06E2F679566276795902F60
:100980009F77D794DD24D7948E2F8695492F462BB9
:10099000582F5D29B701CA011F910F91FF90EF9069
:1009A000DF900895FC01DB01408151812281622F9B
:1009B0006F7770E0221F2227221F9381892F880FD3
:1009C000822B282F30E0991F9927991F11969C930D
:1009D000119721153105A9F54115510561057105DD
:1009E00011F482E037C082E89FEF13969C938E93B8
:1009F00012979A01AB0167E0220F331F441F551F66
:100A00006A95D1F783E08C930DC0220F331F441FEA
:100A1000551F12968D919C911397019713969C9355
:100A20008E931297203080E0380780E0480780E4FA
:100A3000580758F314962D933D934D935C93179755
:100A400008952F3F310579F4411551056105710570
:100A500019F484E08C93089564FF03C081E08C93C3
:100A600012C01C9210C02F57304013963C932E9307
:100A7000129783E08C9387E0440F551F661F771F02
:100A80008A95D1F7706414964D935D936D937C9322
:100A9000179708951F93DC01FB019C91923008F495
:100AA00047C08081823008F443C0943051F41196DD
:100AB0001C91843099F58181682F70E0611B710968
:100AC0003FC0843021F0923031F48230B9F181811D
:100AD000882389F12DC011961C9111978230F1F075
:100AE00081811817D9F412962D913C911397828128
:100AF00093818217930794F028173907BCF0149656
:100B00008D919D910D90BC91A02D248135814681C0
:100B10005781281739074A075B0718F4112341F05A
:100B20000AC082179307A407B50740F4112319F0F0
:100B300061E070E005C06FEF7FEF02C060E070E041
:100B4000CB011F910895DF93CF93CDB7DEB7A7E216
:100B5000B0E0E7E2F0E0808180648C93A7E2B0E04F
:100B6000E7E2F0E080818F778C93A7E2B0E0E7E2E4
:100B7000F0E080818F7D8C93A6E2B0E0E6E2F0E0C9
:100B8000808184608C93A6E2B0E0E6E2F0E08081B0
:100B900082608C93A6E2B0E0E6E2F0E080818160C2
:100BA0008C93A6E2B0E0E6E2F0E0808180688C936E
:100BB000CF91DF910895DF93CF930F92CDB7DEB73A
:100BC0008983A7E2B0E0E7E2F0E08081982F907E91
:100BD0008981892B8C93A6E2B0E0E6E2F0E0808187
:100BE00080648C93E6E2F0E0808182958F70882F9C
:100BF00090E0817090700097A9F3A6E2B0E0E6E281
:100C0000F0E0808180618C93E4E2F0E0808191816A
:100C10000F90CF91DF910895AF92BF92CF92DF9264
:100C2000EF92FF920F931F93DF93CF93CDB7DEB771
:100C300060970FB6F894DEBF0FBECDBF69837A838D
:100C40008B839C832D833E834F835887E986FA8666
:100C50000B871C87AD86BE86CF86D88A29853A85C4
:100C60004B855C858D859E85AF85B88979018A0124
:100C7000E81AF90A0A0B1B0B29813A814B815C8126
:100C80008D8D9E8DAF8DB8A1281B390B4A0B5B0B48
:100C9000C801B7010E9421147B018C0129813A818E
:100CA0004B815C818D819E81AF81B885281B390B7A
:100CB0004A0B5B0BC801B7010E944014DA01C9015D
:100CC0009C01AD0189859A85AB85BC85821B930B00
:100CD000A40BB50BBC01CD0160960FB6F894DEBF36
:100CE0000FBECDBFCF91DF911F910F91FF90EF907D
:100CF000DF90CF90BF90AF900895DF93CF9300D057
:100D000000D00F92CDB7DEB789836A834B83898188
:100D1000282F30E03D832C838C819D81813091058B
:100D200009F447C02C813D81223031052CF48C819F
:100D30009D81009771F0CBC02C813D81223031051F
:100D400009F467C08C819D818330910509F491C0BD
:100D5000BEC08B818823A9F4AAE3B0E0EAE3F0E007
:100D60008081482F8A81282F30E081E090E0022E98
:100D700002C0880F991F0A94E2F7809584238C9310
:100D8000A6C08B81813009F0A2C0AAE3B0E0EAE3FB
:100D9000F0E08081482F8A81282F30E081E090E0C8
:100DA000022E02C0880F991F0A94E2F7842B8C93BD
:100DB0008EC08B818823A9F4A7E3B0E0E7E3F0E0DD
:100DC0008081482F8A81282F30E081E090E0022E38
:100DD00002C0880F991F0A94E2F7809584238C93B0
:100DE00076C08B81813009F072C0A7E3B0E0E7E301
:100DF000F0E08081482F8A81282F30E081E090E068
:100E0000022E02C0880F991F0A94E2F7842B8C935C
:100E10005EC08B818823A9F4A4E3B0E0E4E3F0E0B2
:100E20008081482F8A81282F30E081E090E0022ED7
:100E300002C0880F991F0A94E2F7809584238C934F
:100E400046C08B81813009F042C0A4E3B0E0E4E306
:100E5000F0E08081482F8A81282F30E081E090E007
:100E6000022E02C0880F991F0A94E2F7842B8C93FC
:100E70002EC08B818823A9F4A1E3B0E0E1E3F0E088
:100E80008081482F8A81282F30E081E090E0022E77
:100E900002C0880F991F0A94E2F7809584238C93EF
:100EA00016C08B81813099F4A1E3B0E0E1E3F0E07A
:100EB0008081482F8A81282F30E081E090E0022E47
:100EC00002C0880F991F0A94E2F7842B8C930F902D
:100ED0000F900F900F900F90CF91DF910895DF93B7
:100EE000CF9300D000D00F92CDB7DEB789836A834D
:100EF0004B838981282F30E03D832C838C819D8119
:100F00008130910509F447C02C813D8122303105A3
:100F10002CF48C819D81009771F0CBC02C813D8198
:100F20002230310509F467C08C819D8183309105A1
:100F300009F491C0BEC08B818823A9F4ABE3B0E073
:100F4000EBE3F0E08081482F8A81282F30E081E0B8
:100F500090E0022E02C0880F991F0A94E2F7809554
:100F600084238C93A6C08B81813009F0A2C0ABE3AF
:100F7000B0E0EBE3F0E08081482F8A81282F30E059
:100F800081E090E0022E02C0880F991F0A94E2F7D8
:100F9000842B8C938EC08B818823A9F4A8E3B0E0C6
:100FA000E8E3F0E08081482F8A81282F30E081E05B
:100FB00090E0022E02C0880F991F0A94E2F78095F4
:100FC00084238C9376C08B81813009F072C0A8E3B2
:100FD000B0E0E8E3F0E08081482F8A81282F30E0FC
:100FE00081E090E0022E02C0880F991F0A94E2F778
:100FF000842B8C935EC08B818823A9F4A5E3B0E099
:10100000E5E3F0E08081482F8A81282F30E081E0FD
:1010100090E0022E02C0880F991F0A94E2F7809593
:1010200084238C9346C08B81813009F042C0A5E3B4
:10103000B0E0E5E3F0E08081482F8A81282F30E09E
:1010400081E090E0022E02C0880F991F0A94E2F717
:10105000842B8C932EC08B818823A9F4A2E3B0E06B
:10106000E2E3F0E08081482F8A81282F30E081E0A0
:1010700090E0022E02C0880F991F0A94E2F7809533
:1010800084238C9316C08B81813099F4A2E3B0E065
:10109000E2E3F0E08081482F8A81282F30E081E070
:1010A00090E0022E02C0880F991F0A94E2F7842B69
:1010B0008C930F900F900F900F900F90CF91DF9126
:1010C0000895DF93CF9300D000D00F92CDB7DEB755
:1010D0008A836B838A81282F30E03D832C834C8167
:1010E0005D814130510541F18C819D8182309105B6
:1010F00034F42C813D812115310561F052C04C81C1
:101100005D814230510551F18C819D818330910583
:10111000B9F147C0E9E3F0E08081282F30E08B810E
:10112000882F90E0A90102C0559547958A95E2F76E
:10113000CA018170898335C0E6E3F0E08081282F01
:1011400030E08B81882F90E0A90102C0559547952A
:101150008A95E2F7CA018170898323C0E3E3F0E056
:101160008081282F30E08B81882F90E0A90102C078
:10117000559547958A95E2F7CA018170898311C018
:10118000E0E3F0E08081282F30E08B81882F90E031
:10119000A90102C0559547958A95E2F7CA01817069
:1011A000898389810F900F900F900F900F90CF91AE
:1011B000DF910895DF93CF9300D000D000D0CDB75A
:1011C000DEB789836A835C834B838981282F30E073
:1011D0003E832D834D815E814130510559F18D81D2
:1011E0009E818230910534F42D813E812115310597
:1011F00069F05BC04D815E814230510579F18D818E
:101200009E818330910509F43DC04FC0E9E3F0E0D1
:101210008081282F30E08A81882F90E0A90102C0C8
:10122000559547958A95E2F7CA018170EB81FC815B
:1012300080833BC0E6E3F0E08081282F30E08A81A4
:10124000882F90E0A90102C0559547958A95E2F74D
:10125000CA018170EB81FC81808327C0E3E3F0E069
:101260008081282F30E08A81882F90E0A90102C078
:10127000559547958A95E2F7CA018170EB81FC810B
:10128000808313C0E0E3F0E08081282F30E08A8182
:10129000882F90E0A90102C0559547958A95E2F7FD
:1012A000CA018170EB81FC81808326960FB6F89489
:1012B000DEBF0FBECDBFCF91DF910895DF93CF93F7
:1012C00000D000D0CDB7DEB789836A838981282F0B
:1012D00030E03C832B838B819C8181309105D1F060
:1012E0002B813C81223031052CF48B819C8100972D
:1012F00061F01EC02B813C812230310581F08B8151
:101300009C818330910581F013C0EAE3F0E08A818B
:1013100080830EC0E7E3F0E08A81808309C0E4E3C4
:10132000F0E08A81808304C0E1E3F0E08A81808379
:101330000F900F900F900F90CF91DF910895DF9352
:10134000CF9300D000D0CDB7DEB789836A8389817F
:10135000282F30E03C832B838B819C818130910549
:10136000D1F02B813C81223031052CF48B819C8182
:10137000009761F01EC02B813C812230310581F045
:101380008B819C818330910581F013C0EBE3F0E009
:101390008A8180830EC0E8E3F0E08A81808309C0FF
:1013A000E5E3F0E08A81808304C0E2E3F0E08A8133
:1013B00080830F900F900F900F90CF91DF91089541
:1013C000DF93CF93CDB7DEB7A5E5B0E0E5E5F0E07C
:1013D000808182608C93A5E5B0E0E5E5F0E0808156
:1013E00081608C93A5E5B0E0E5E5F0E08081886060
:1013F0008C93A5E5B0E0E5E5F0E0808184608C9316
:10140000A4E5B0E0E4E5F0E0808180648C93CF91C6
:10141000DF910895DF93CF9300D00F92CDB7DEB761
:1014200089838981282F30E03B832A838A819B81AD
:101430008130910521F12A813B81223031052CF444
:101440008A819B81009761F046C02A813B812230CE
:10145000310521F18A819B818330910571F13BC077
:10146000A5E5B0E0E5E5F0E0808182608C93A5E53C
:10147000B0E0E5E5F0E080818E7F8C932CC0A5E59F
:10148000B0E0E5E5F0E0808182608C93A5E5B0E016
:10149000E5E5F0E0808181608C931DC0A5E5B0E0BA
:1014A000E5E5F0E0808181608C93A5E5B0E0E5E5BD
:1014B000F0E080818D7F8C930EC0A5E5B0E0E5E57E
:1014C000F0E080818E7F8C93A5E5B0E0E5E5F0E06B
:1014D00080818D7F8C930F900F900F90CF91DF9133
:1014E0000895DF93CF9300D00F92CDB7DEB78983F5
:1014F0008981282F30E03B832A838A819B81813038
:10150000910589F02A813B8122303105A1F08A8141
:101510009B810097B9F4ABE5B0E0EBE5F0E08081AA
:1015200080648C930FC0ABE5B0E0EBE5F0E0808128
:1015300080688C9307C0ABE5B0E0EBE5F0E080811C
:1015400080628C930F900F900F90CF91DF91089550
:10155000DF93CF9300D00F92CDB7DEB78983898117
:10156000282F30E03B832A838A819B81813091053B
:1015700089F02A813B8122303105A1F08A819B814B
:101580000097B9F4ABE5B0E0EBE5F0E080818F7B4C
:101590008C930FC0ABE5B0E0EBE5F0E080818F7796
:1015A0008C9307C0ABE5B0E0EBE5F0E080818F7D88
:1015B0008C930F900F900F90CF91DF910895DF9350
:1015C000CF9300D0CDB7DEB79A83898389819A8182
:1015D00090938300809382000F900F90CF91DF91C2
:1015E0000895DF93CF9300D0CDB7DEB79A83898378
:1015F00089819A8190938500809384000F900F9049
:10160000CF91DF910895DF93CF9300D0CDB7DEB7B0
:101610009A83898389819A81909387008093860039
:101620000F900F90CF91DF9108951F920F920FB6F8
:101630000F9211242F933F934F935F936F937F9358
:101640008F939F93AF93BF93EF93FF93DF93CF93CA
:10165000CDB7DEB7E0918200F09183000995CF917C
:10166000DF91FF91EF91BF91AF919F918F917F910A
:101670006F915F914F913F912F910F900FBE0F90FF
:101680001F9018951F920F920FB60F9211242F934F
:101690003F934F935F936F937F938F939F93AF93FA
:1016A000BF93EF93FF93DF93CF93CDB7DEB7E09176
:1016B0008400F09185000995CF91DF91FF91EF9122
:1016C000BF91AF919F918F917F916F915F914F915A
:1016D0003F912F910F900FBE0F901F9018951F9262
:1016E0000F920FB60F9211242F933F934F935F9356
:1016F0006F937F938F939F93AF93BF93EF93FF93DA
:10170000DF93CF93CDB7DEB7E0918600F0918700ED
:101710000995CF91DF91FF91EF91BF91AF919F918B
:101720008F917F916F915F914F913F912F910F908A
:101730000FBE0F901F901895DF93CF93CDB7DEB7F4
:10174000AFE5B0E0EFE5F0E0808180688C93CF9169
:10175000DF910895DF93CF93CDB7DEB7AFE5B0E06B
:10176000EFE5F0E080818F778C93CF91DF91089542
:10177000DF93CF930F92CDB7DEB7198219820DC0D8
:1017800083E0698140E00E947D0683E0698141E059
:101790000E946F0789818F5F89838981843080F3FC
:1017A00084E089830DC083E0698141E00E947D0669
:1017B00083E0698141E00E946F0789818F5F89839F
:1017C0008981883080F30F90CF91DF910895DF9366
:1017D000CF93CDB7DEB763970FB6F894DEBF0FBED9
:1017E000CDBF1B8A80E18A8B198A188AAEC088898E
:1017F000982F9C5F83E0692F40E00E946F071F864F
:1018000092C083E06F850E9461088B8B80E090E03E
:10181000A0EAB1E48B879C87AD87BE876B857C850A
:101820008D859E8520E030E04AEF54E40E941F023F
:10183000DC01CB018F839887A987BA876F81788570
:1018400089859A8520E030E040E85FE30E947903D3
:1018500088232CF481E090E09E838D833FC06F81CC
:10186000788589859A8520E03FEF4FE757E40E940D
:10187000190318164CF56B857C858D859E8520E0B7
:1018800030E040E251E40E941F02DC01CB01BC01C8
:10189000CD010E944900DC01CB019E838D830FC0E6
:1018A00088EC90E09C838B838B819C810197F1F77E
:1018B0009C838B838D819E8101979E838D838D81F7
:1018C0009E81009769F714C06F81788589859A8514
:1018D0000E944900DC01CB019E838D838D819E8116
:1018E0009A83898389819A810197F1F79A83898301
:1018F0008B898823A9F48F85482F50E08889282F69
:1019000030E0CA01880F991F880F991F820F931F1B
:10191000FC01E859FF4F80818A8B81E0898B07C0E9
:101920008F858F5F8F878F85843008F46ACF888991
:10193000982F9C5F83E0692F41E00E946F0789899F
:10194000813039F088898F5F888B8889843008F4EA
:101950004ECF8A8963960FB6F894DEBF0FBECDBF17
:10196000CF91DF910895DF93CF93CDB7DEB7E8979E
:101970000FB6F894DEBF0FBECDBF82E06FEF0E94BE
:101980005E0980E062E041E00E947D0680E061E067
:1019900041E00E947D0680E060E041E00E947D061B
:1019A00080E060E040E00E946F0780E090E0A0EF00
:1019B000B1E48DAB9EABAFABB8AF6DA97EA98FA9DB
:1019C00098AD20E030E04AEF54E40E941F02DC01B1
:1019D000CB0189AB9AABABABBCAB69A97AA98BA99C
:1019E0009CA920E030E040E85FE30E94790388236F
:1019F0002CF481E090E098AB8FA73FC069A97AA949
:101A00008BA99CA920E03FEF4FE757E40E94190300
:101A100018164CF56DA97EA98FA998AD20E030E08D
:101A200040E251E40E941F02DC01CB01BC01CD0168
:101A30000E944900DC01CB0198AB8FA70FC088EC56
:101A400090E09EA78DA78DA59EA50197F1F79EA773
:101A50008DA78FA598A9019798AB8FA78FA598A957
:101A6000009769F714C069A97AA98BA99CA90E945B
:101A70004900DC01CB0198AB8FA78FA598A99CA743
:101A80008BA78BA59CA50197F1F79CA78BA788E353
:101A90000E94B20E80E090E0A0EAB0E48FA398A785
:101AA000A9A7BAA76FA178A589A59AA520E030E0DB
:101AB0004AEF54E40E941F02DC01CB018BA39CA3DC
:101AC000ADA3BEA36BA17CA18DA19EA120E030E0BF
:101AD00040E85FE30E94790388232CF481E090E0E2
:101AE0009AA389A33FC06BA17CA18DA19EA120E0F8
:101AF0003FEF4FE757E40E94190318164CF56FA10A
:101B000078A589A59AA520E030E040E251E40E9442
:101B10001F02DC01CB01BC01CD010E944900DC01A8
:101B2000CB019AA389A30FC088EC90E098A38F8F74
:101B30008F8D98A10197F1F798A38F8F89A19AA112
:101B400001979AA389A389A19AA1009769F714C064
:101B50006BA17CA18DA19EA10E944900DC01CB015B
:101B60009AA389A389A19AA19E8F8D8F8D8D9E8D19
:101B70000197F1F79E8F8D8F8CE00E94B20E80E06E
:101B800090E0A0EAB0E4898F9A8FAB8FBC8F698D0B
:101B90007A8D8B8D9C8D20E030E04AEF54E40E94DA
:101BA0001F02DC01CB018D8B9E8BAF8BB88F6D89B3
:101BB0007E898F89988D20E030E040E85FE30E94C5
:101BC000790388232CF481E090E09C8B8B8B3FC0C1
:101BD0006D897E898F89988D20E03FEF4FE757E42C
:101BE0000E94190318164CF5698D7A8D8B8D9C8D8A
:101BF00020E030E040E251E40E941F02DC01CB0112
:101C0000BC01CD010E944900DC01CB019C8B8B8B78
:101C10000FC088EC90E09A8B898B89899A8901970B
:101C2000F1F79A8B898B8B899C8901979C8B8B8B85
:101C30008B899C89009769F714C06D897E898F898B
:101C4000988D0E944900DC01CB019C8B8B8B8B898A
:101C50009C89988B8F878F8598890197F1F7988B4E
:101C60008F8781E00E94B20E80E090E0A0EAB0E4AD
:101C70008B879C87AD87BE876B857C858D859E8590
:101C800020E030E04AEF54E40E941F02DC01CB0167
:101C90008F839887A987BA876F81788589859A8588
:101CA00020E030E040E85FE30E94790388232CF4D1
:101CB00081E090E09E838D833FC06F817885898528
:101CC0009A8520E03FEF4FE757E40E94190318166A
:101CD0004CF56B857C858D859E8520E030E040E26B
:101CE00051E40E941F02DC01CB01BC01CD010E9426
:101CF0004900DC01CB019E838D830FC088EC90E00E
:101D00009C838B838B819C810197F1F79C838B83D0
:101D10008D819E8101979E838D838D819E81009709
:101D200069F714C06F81788589859A850E9449007A
:101D3000DC01CB019E838D838D819E819A83898373
:101D400089819A810197F1F79A83898386E00E94BD
:101D5000B20EE8960FB6F894DEBF0FBECDBFCF919E
:101D6000DF910895DF93CF93CDB7DEB72F970FB6EE
:101D7000F894DEBF0FBECDBF8F8780E062E040E009
:101D80000E946F0780E061E040E00E946F0780E002
:101D900060E040E00E946F0782E06F850E949F092B
:101DA00080E060E041E00E946F0780E090E0A0EA00
:101DB000B0E48B879C87AD87BE876B857C858D85DE
:101DC0009E8520E030E04AEF54E40E941F02DC01CF
:101DD000CB018F839887A987BA876F81788589859A
:101DE0009A8520E030E040E85FE30E947903882391
:101DF0002CF481E090E09E838D833FC06F817885D5
:101E000089859A8520E03FEF4FE757E40E94190348
:101E100018164CF56B857C858D859E8520E030E01D
:101E200040E251E40E941F02DC01CB01BC01CD0164
:101E30000E944900DC01CB019E838D830FC088EC9A
:101E400090E09C838B838B819C810197F1F79C832D
:101E50008B838D819E8101979E838D838D819E8151
:101E6000009769F714C06F81788589859A850E94EB
:101E70004900DC01CB019E838D838D819E819A83F5
:101E8000898389819A810197F1F79A83898380E018
:101E900060E040E00E946F072F960FB6F894DEBF17
:101EA0000FBECDBFCF91DF910895DF93CF93CDB714
:101EB000DEB72F970FB6F894DEBF0FBECDBF8F876A
:101EC00080E062E041E00E946F0780E061E040E076
:101ED0000E946F0780E060E040E00E946F0782E0B0
:101EE0006F850E949F0980E060E041E00E946F07DB
:101EF00080E090E0A0EAB0E48B879C87AD87BE8746
:101F00006B857C858D859E8520E030E04AEF54E42A
:101F10000E941F02DC01CB018F839887A987BA87B3
:101F20006F81788589859A8520E030E040E85FE31D
:101F30000E94790388232CF481E090E09E838D83B6
:101F40003FC06F81788589859A8520E03FEF4FE714
:101F500057E40E94190318164CF56B857C858D8516
:101F60009E8520E030E040E251E40E941F02DC0147
:101F7000CB01BC01CD010E944900DC01CB019E8355
:101F80008D830FC088EC90E09C838B838B819C8138
:101F90000197F1F79C838B838D819E8101979E83AE
:101FA0008D838D819E81009769F714C06F8178853C
:101FB00089859A850E944900DC01CB019E838D832F
:101FC0008D819E819A83898389819A810197F1F716
:101FD0009A83898380E060E040E00E946F072F963B
:101FE0000FB6F894DEBF0FBECDBFCF91DF9108953D
:101FF000DF93CF9300D00F92CDB7DEB79B838A8358
:1020000019820EC08981282F30E08A819B81FC01D2
:10201000E20FF31F80810E94550F89818F5F8983B2
:102020008981282F30E08A819B81FC01E20FF31F18
:102030008081882339F70F900F900F90CF91DF9117
:102040000895DF93CF9300D000D00F92CDB7DEB7C5
:102050008A836B838B818031B0F48A81282F30E0B2
:102060003D832C838C819D81009731F02C813D81B3
:102070002130310529F007C08B818058898303C046
:102080008B818054898389810E94B20E0F900F90BA
:102090000F900F900F90CF91DF910895DF93CF9322
:1020A000CDB7DEB7ADE2B0E0EDE2F0E08081806177
:1020B0008C93ADE2B0E0EDE2F0E0808180648C933F
:1020C000CF91DF910895DF93CF93CDB7DEB7ADE227
:1020D000B0E0EDE2F0E080818F7E8C93ADE2B0E085
:1020E000EDE2F0E0808180648C93CF91DF910895E0
:1020F000DF93CF930F92CDB7DEB78983EFE2F0E0A5
:1021000089818083EEE2F0E080818823DCF7EFE2D2
:10211000F0E080810F90CF91DF910895DF93CF930E
:10212000CDB7DEB781E063E041E00E947D0681E04B
:1021300063E041E00E946F0782E06FEF0E945E095A
:10214000CF91DF910895DF93CF930F92CDB7DEB794
:1021500089838981882F90E0FC01E858FF4F8081B6
:10216000982F909582E0692F0E949F090F90CF9140
:10217000DF910895DF93CF93CDB7DEB7A3E5B0E04D
:10218000E3E5F0E080818F7B8C93A3E5B0E0E3E5AD
:10219000F0E08081877F8C93A3E5B0E0E3E5F0E099
:1021A00080818E7F8C93A3E5B0E0E3E5F0E0808151
:1021B00082608C93A3E5B0E0E3E5F0E080818B7F63
:1021C0008C93CF91DF910895DF93CF93CDB7DEB796
:1021D000A3E5B0E0E3E5F0E080818F7B8C93A3E59D
:1021E000B0E0E3E5F0E0808188608C93A3E5B0E0A7
:1021F000E3E5F0E080818E7F8C93A3E5B0E0E3E53A
:10220000F0E0808182608C93A3E5B0E0E3E5F0E04C
:1022100080818B7F8C93A3E5B0E0E3E5F0E08081E3
:1022200080618C93A3E5B0E0E3E5F0E080818F7DF1
:102230008C93CF91DF910895DF93CF93CDB7DEB725
:10224000A3E5B0E0E3E5F0E0808180648C93A3E552
:10225000B0E0E3E5F0E0808188608C93A3E5B0E036
:10226000E3E5F0E080818E7F8C93A3E5B0E0E3E5C9
:10227000F0E0808182608C93A3E5B0E0E3E5F0E0DC
:1022800080818B7F8C93A3E5B0E0E3E5F0E0808173
:102290008F7E8C93A3E5B0E0E3E5F0E0808180627F
:1022A0008C93CF91DF910895DF93CF93CDB7DEB7B5
:1022B000A9E5B0E0E9E5F0E0808181608C93CF9101
:1022C000DF910895DF93CF930F92CDB7DEB7898367
:1022D000E2E5F0E0898180830F90CF91DF9108954E
:1022E000DF93CF930F92CDB7DEB78983ECE5F0E0B3
:1022F000898180830F90CF91DF910895DF93CF93F1
:1023000000D0CDB7DEB79A83898389819A81909373
:102310008900809388000F900F90CF91DF910895EE
:102320001F920F920FB60F9211242F933F934F934A
:102330005F936F937F938F939F93AF93BF93EF932D
:10234000FF93DF93CF93CDB7DEB7E0918800F09194
:1023500089000995CF91DF91FF91EF91BF91AF91E6
:102360009F918F917F916F915F914F913F912F91AD
:102370000F900FBE0F901F901895DF93CF93CDB79E
:10238000DEB7AFE4B0E0EFE4F0E0808180688C93EA
:10239000AFE4B0E0EFE4F0E080818F7B8C93AFE4BA
:1023A000B0E0EFE4F0E080818E7F8C93AFE4B0E0AA
:1023B000EFE4F0E0808182608C93AEE4B0E0EEE484
:1023C000F0E0808188608C93AEE4B0E0EEE4F0E071
:1023D000808180618C93AEE4B0E0EEE4F0E0808137
:1023E0008E7F8C93AEE4B0E0EEE4F0E0808182601A
:1023F0008C93AEE4B0E0EEE4F0E080818B7F8C93D0
:10240000CF91DF910895DF93CF93CDB7DEB7AFE4DF
:10241000B0E0EFE4F0E080818E7F8C93AFE4B0E039
:10242000EFE4F0E0808182608C93AEE4B0E0EEE413
:10243000F0E0808188608C93AEE4B0E0EEE4F0E000
:10244000808180618C93AFE4B0E0EFE4F0E08081C4
:1024500080688C93AFE4B0E0EFE4F0E080818F7BA4
:102460008C93AEE4B0E0EEE4F0E0808181608C9388
:10247000AEE4B0E0EEE4F0E0808182608C93AEE404
:10248000B0E0EEE4F0E080818B7F8C93E6E4F0E056
:1024900087E893E191838083EAE4F0E089EF90E0BC
:1024A00091838083CF91DF910895DF93CF93CDB750
:1024B000DEB7AFE4B0E0EFE4F0E080818E7F8C9394
:1024C000AFE4B0E0EFE4F0E080818D7F8C93AEE488
:1024D000B0E0EEE4F0E08081877F8C93AEE4B0E082
:1024E000EEE4F0E080818F7E8C93AEE4B0E0EEE429
:1024F000F0E080818E7F8C93AEE4B0E0EEE4F0E01B
:10250000808182608C93AEE4B0E0EEE4F0E0808104
:102510008B7F8C93CF91DF910895DF93CF93CDB7CD
:10252000DEB7AFE4B0E0EFE4F0E080818E7F8C9323
:10253000AFE4B0E0EFE4F0E080818D7F8C93AEE417
:10254000B0E0EEE4F0E0808188608C93AEE4B0E02F
:10255000EEE4F0E080818F7E8C93AEE4B0E0EEE4B8
:10256000F0E080818E7F8C93AEE4B0E0EEE4F0E0AA
:10257000808182608C93AEE4B0E0EEE4F0E0808194
:102580008B7F8C93CF91DF910895DF93CF93CDB75D
:10259000DEB7A9E5B0E0E9E5F0E0808180618C93E9
:1025A000CF91DF910895DF93CF9300D0CDB7DEB701
:1025B0009A838983EAE4F0E089819A819183808318
:1025C0000F900F90CF91DF910895DF93CF93CDB708
:1025D000DEB7EAE4F0E080819181CF91DF91089548
:1025E000DF93CF9300D0CDB7DEB79A838983E6E43B
:1025F000F0E089819A81918380830F900F90CF9131
:10260000DF910895DF93CF9300D0CDB7DEB79A83E3
:102610008983ECE4F0E089819A81918380830F9033
:102620000F90CF91DF910895DF93CF93CDB7DEB7B1
:10263000ECE4F0E080819181CF91DF910895DF9308
:10264000CF9300D0CDB7DEB79A83898389819A81F1
:1026500090938B0080938A000F900F90CF91DF9121
:1026600008951F920F920FB60F9211242F933F934C
:102670004F935F936F937F938F939F93AF93BF938A
:10268000EF93FF93DF93CF93CDB7DEB7E0918A004E
:10269000F0918B000995CF91DF91FF91EF91BF9160
:1026A000AF919F918F917F916F915F914F913F91EA
:1026B0002F910F900FBE0F901F901895DF93CF931F
:1026C000CDB7DEB7E0E4F0E086E88083AAE2B0E0D0
:1026D000EAE2F0E080818B7F8C93AAE2B0E0EAE24C
:1026E000F0E0808180618C93AAE2B0E0EAE2F0E061
:1026F000808188608C93E9E2F0E083E38083CF916E
:10270000DF910895DF93CF930F92CDB7DEB7898322
:10271000EBE2F0E08081829586958770882F90E0CB
:10272000817090700097A1F3ECE2F0E089818083E2
:102730000F90CF91DF910895DF93CF93CDB7DEB7A0
:10274000EBE2F0E080818823DCF7ECE2F0E08081CE
:10275000CF91DF910895DF93CF93CDB7DEB7A1E49A
:10276000B0E0E1E4F0E0808188608C93CF91DF916C
:102770000895DF93CF93CDB7DEB7E1E4F0E088E1D1
:102780008083E1E4F0E01082CF91DF910895DF9340
:10279000CF930F92CDB7DEB78983A1E4B0E0E1E437
:1027A000F0E08081982F98758981892B8C930F9008
:1027B000CF91DF910895DF93CF93CDB7DEB7A89582
:1027C000CF91DF910895DF93CF9300D0CDB7DEB7DF
:1027D0001A82198281E064E040E00E947D0681E077
:1027E00065E040E00E947D0681E066E041E00E94F5
:1027F0007D0681E067E040E00E947D060E94631054
:1028000082E060E041E00E947D0682E060E040E01E
:102810000E946F0786E490E00E9478109A83898373
:1028200089819A818A31910530F082E060E041E04F
:102830000E946F07EFCF82E060E040E00E946F07E8
:10284000E9CF629FD001739FF001829FE00DF11DDF
:10285000649FE00DF11D929FF00D839FF00D749F1A
:10286000F00D659FF00D9927729FB00DE11DF91FC6
:10287000639FB00DE11DF91FBD01CF011124089523
:10288000A1E21A2EAA1BBB1BFD010DC0AA1FBB1F74
:10289000EE1FFF1FA217B307E407F50720F0A21BE6
:1028A000B30BE40BF50B661F771F881F991F1A9453
:1028B00069F760957095809590959B01AC01BD017D
:1028C000CF0108952F923F924F925F926F927F9225
:1028D0008F929F92AF92BF92CF92DF92EF92FF9230
:1028E0000F931F93CF93DF93CDB7DEB7CA1BDB0BDC
:1028F0000FB6F894DEBF0FBECDBF09942A88398881
:1029000048885F846E847D848C849B84AA84B98487
:10291000C884DF80EE80FD800C811B81AA81B98193
:10292000CE0FD11D0FB6F894DEBF0FBECDBFED01A7
:062930000895F894FFCFAA
:102936000000000000000000000102030405060775
:1029460008090A0B0C0D0E0F3F065B4F666D7D07DF
:022956007F6F91
:00000001FF
